:020000040800F2
:10000000D07B002085010008557A0008355C000887
:1000100079630008FB280008C5EA0008000000001A
:100020000000000000000000000000009701000830
:10003000092E000800000000BB0C000829DF0008A2
:100040009F0100089F0100089F0100089F01000810
:100050009F0100089F0100089F0100089F01000800
:100060009F0100089F0100089F0100089F010008F0
:100070009F0100089F0100089F0100089F010008E0
:100080009F0100089F0100089F0100089F010008D0
:100090009F0100089F0100089F0100089F010008C0
:1000A0009F0100089F0100089F0100089F010008B0
:1000B0009F010008E9E000089F0100089F01000877
:1000C0009F0100089F0100089F0100089F01000890
:1000D0009F010008DDE5000861E60008D5E600089C
:1000E0009F0100089F0100089F0100080000000018
:1000F0000000000000000000000000000000000000
:10010000000000009F0100089F010008000000009F
:1001100000000000000000000000000000000000DF
:100120009F0100089F0100089F0100089F0100082F
:1001300000000000000000000000000000000000BF
:100140000000000000000000000000009F01000807
:1001500000000000000000009F0100089F0100084F
:100160009F01000800000000000000009F0100083F
:10017000DFF80CD000F0D6FC00480047C914010895
:10018000D07B00200648804706480047FEE7FEE790
:10019000FEE7FEE7FEE7FEE7FEE7FEE7FEE7FEE737
:1001A00045DF00087101000872B6704762B67047FB
:1001B000EFF3108072B6704780F31088704730BF3D
:1001C000704720BF7047B0FA80F0704790FAA0F0F7
:1001D000B0FA80F0704790FAA0F070472DE9F05F18
:1001E0000546002092469B468846064681464024A6
:1001F0001BE0284641464746224600F088FA53460F
:100200005A46C01A914110D311461846224600F0B2
:100210006FFA2D1A67EB01084F4622460120002194
:1002200000F066FA17EB00094E41201EA4F101040C
:10023000DFDC484631462A464346BDE8F09F40EAA7
:1002400001039B0703D009E008C9121F08C0042A54
:10025000FAD203E011F8013B00F8013B521EF9D23B
:100260007047D2B201E000F8012B491EFBD2704763
:100270000022F6E710B513460A4604461946FFF772
:10028000F0FF204610BD30B505462A460B4612F851
:10029000010B13F8014B08B1A042F8D01CB10028A3
:1002A00002D06D1CF1E7284630BD421C10F8011B3E
:1002B0000029FBD1801A704730B50546002003465F
:1002C00000E05B1C934205D2EC5CC85C201A01D1B3
:1002D000002CF6D130BD000070B50F4D00B9286874
:1002E000002412E00A4602E09E4203D0521C13781A
:1002F000002BF9D1DAB2224305D02BB124B1002171
:1003000000F8011B04E00446401C0678002EE9D1E9
:100310002860204670BD00008406002070B50646A7
:100320000EF0D2FF046805460A220021304600F094
:10033000FEF92C6070BDF0B480EA0102D40F4200D7
:10034000B2EB410F02D20246084611464A0042D0A3
:10035000C30DDDB2C1F3C752AD1A202D35DAC1F39A
:10036000160141F4000204B15242C5F1200602FA1E
:1003700006F12A411044B3EBD05F23D0C4B1012D64
:10038000A0EBC35009DCF0BC4FF0004202EAC352BC
:10039000DBB200F5000000F00BBA400000F1807005
:1003A00000EBC350A0F1807040EAD170490009E031
:1003B000490841EAC071A0EBC35000F500004008B5
:1003C00000EBC350F0BC00F0EAB96142012202EB3D
:1003D0004101001BF6E7F0BC704781F00041AAE73D
:1003E00080F00040A7E780EA010210B502F0004368
:1003F000400022D04A001FD0010E01EB1261C0F371
:100400005600C2F3560240F4000042F40002A0FB82
:10041000022000047F39140400D0401C50EA12402E
:1004200001D44000491EC2B20C0604EBD010401C9F
:100430004008802A02D003E0002010BD20F0010017
:10044000002900DA0020184310BD30B480EA010210
:1004500002F0004530F0004221F0004013D090B18E
:10046000C30DD40DC2F31601C0F31600E41A41F413
:10047000000140F400027D34914201D3641C00E08D
:100480004900002C02DA30BC002070474FF4000015
:100490000023914201D3891A034340084FEA4101E6
:1004A000F7D151B1914202D14FF0004105E002D2A3
:1004B0004FF0010101E06FF0010103EBC45028444B
:1004C00030BC00F06CB92DE9FE4F81EA030404F062
:1004D000004421F0004100944FF0000B23F0004352
:1004E00050EA01045ED052EA03045BD0C3F30A541D
:1004F000C1F30A552C44A4F2F3340194A0FB025436
:10050000C1F3130141F48011C3F3130343F48013C7
:1005100001FB024400FB034E840A970A44EA81541B
:1005200047EA8357A4FB076802958D0A05FB0785F8
:100530004FEA932C04FB0C542705029D4FEA065802
:1005400047EA1637B5EB08056EEB070C870E920EDF
:1005500047EA811742EA8312A7FB0201B6EB0B01BF
:1005600064EB00042B0D43EA0C335E1844EB1C5083
:10057000DA465146E7FB0201C5F313044FEA0B3399
:1005800043EA14534FEA0432019C43EA0603A4F100
:100590000C040294009CCDE900B400F046F903B0CD
:1005A000BDE8F08F00200146F9E7962300221146AE
:1005B00000F0FEB820F00040C10DC0F3160040F47A
:1005C00000007F2901DA00207047962903DCC1F181
:1005D0009601C840704796398840704700F0004245
:1005E00030F000400AD0C10D01F56071C0F3160073
:1005F00042EA0151C20840071143704700200146FA
:100600007047000030B5041E71F1000404DB4FF0A8
:100610000044404264EB0101141E73F1000405DB49
:100620001C464FF00043524263EB04038B4208BF69
:10063000824230BD30B5041E71F1000404DB4FF07E
:100640000044404264EB0101141E73F1000405DB19
:100650001C464FF00043524263EB0403994208BF2B
:10066000904230BD01F0004330B421F0004150EA27
:10067000010206D00A0DA2F56072C1F31301002A2F
:1006800002DC30BC00207047440F44EAC104C100C2
:10069000E01830BC00EBC25000F081B8002801DB4C
:1006A000C0F10040002901DBC1F1004181427047E7
:1006B000002801DBC0F10040002901DBC1F100414D
:1006C0008842704730B50B460146002020220124A5
:1006D00009E021FA02F59D4205D303FA02F5491B10
:1006E00004FA02F52844151EA2F10102F1DC30BD26
:1006F000202A04DB203A00FA02F1002070479140E2
:10070000C2F1200320FA03F3194390407047202AD6
:1007100004DB203A21FA02F00021704721FA02F3AB
:10072000D040C2F1200291400843194670472DE99C
:10073000F04791460F4680460446002614F8015BB8
:100740002DB100F013FA0068405DC007F6D12B2DE3
:1007500002D02D2D18D0641E4A463946204600F09E
:1007600009FA27B13968A14201D1C7F800807105A3
:100770004FF002040BD54042002803DD0EF0A4FD2B
:100780000460A007BDE8F08746F48066E4E700282F
:10079000F8DA0EF099FD04606FF00040F2E70029EE
:1007A000A8BF7047401C490008BF20F001007047F7
:1007B00010B4B0FA80FC00FA0CF050EA010404BF57
:1007C00010BC704749B1CCF1200421FA04F411FAAD
:1007D0000CF118BF012121430843A3EB0C01CB1DF1
:1007E0004FEA00614FEA102042BF002010BC704762
:1007F00000EBC35010440029A4BF10BC7047401C3C
:10080000490008BF20F0010010BC704710B5141E4D
:1008100073F1000408DA401C41F1000192185B41B9
:100820001A4301D120F0010010BD2DE9F04D924690
:100830009B4611B1B1FA81F202E0B0FA80F22032A7
:100840009046FFF755FF04460F4640EA0A0041EA8A
:100850000B0153465A46084313D0114653EA010090
:1008600019D0C8F140025046FFF751FF05460E4629
:10087000504659464246FFF73BFF084305D001204A
:1008800004E020463946BDE8F08D0020054346EAE5
:10089000E0762C4337430A986305E40AA0EB08008E
:1008A0000022FD0A44EA47540A3002D500200146DE
:1008B000E9E7010510196941DDE9084500196941B9
:1008C000BDE8F04DA2E72DE9FE4F804681EA030026
:1008D000C00F0C46009021F0004123F00045B8EB1A
:1008E0000200A94105D24046214690461C460B46CF
:1008F000024623F00040104347D0270DC7F30A00FB
:10090000C3F30A510290401A019040286BDAC3F3F6
:10091000130040F4801B0098924620B10023D2EBD4
:10092000030A63EB0B0B01985946C0F14002504695
:10093000FFF7DEFE06460D4650465946019A00F086
:1009400003F910EB08006141002487EA115284EAA0
:10095000E7731A4340D0009A62B3019A012A4FEA22
:10096000075215DC001B61EB02014FF0004202EA66
:100970000752CDE90042001C41F5801132462B465A
:10098000FFF753FF03B0BDE8F08F40462146F9E77B
:10099000001B61EB0201001C41F5801300185B4154
:1009A0002018A2F5001747EB030140EAD570B619ED
:1009B0006D4111E06D084FEA360645EAC0754FEA11
:1009C0000752001B61EB0201001C41F58011490830
:1009D0004FEA30000019514132462B4603B0BDE8C2
:1009E000F04FFFF713BF0098012240000023D0EB27
:1009F000020263EBE073009821464FEAE074B8EB23
:100A0000000061EB0401E9E783F000435BE781F05C
:100A1000004158E72DE9F04D81EA030404F0004B52
:100A200021F0004514464FF0000A23F0004150EA3F
:100A3000050220D054EA01021DD0C5F30A57024630
:100A4000C5F31303C1F31300C1F30A5640F4801534
:100A500043F48013A7EB0608101BD64608F2FD38B6
:100A600073EB050002D308F1010801E092185B4125
:100A7000B8F1000F03DA00200146BDE8F08D002038
:100A80004FF48011064684460EE0171B73EB0507F2
:100A900005D3121B63EB050306434CEA010C49081E
:100AA0004FEA300092185B4150EA0107EDD152EA5B
:100AB000030012D082EA040083EA0501084305D04E
:100AC000101BAB4106D20122002306E000224FF0AA
:100AD000004302E06FF0010253101AEB06004CEBEA
:100AE000085110EB0A0041EB0B01BDE8F04DFFF798
:100AF0008DBEC1F30A52C1F3130140F2FF3341F43A
:100B000080119A4202DA00200146704740F23343D6
:100B10009A42A2F2334202DC5242FFF7F8BDFFF7DD
:100B2000E7BD0000064C074D06E0E06840F0010319
:100B300094E8070098471034AC42F6D3FFF71CFB4B
:100B4000D42F0108F42F0108202A06DBCB17203A06
:100B500041FA02F043EAE07306E041FA02F3D040C2
:100B6000C2F120029140084319467047004870477F
:100B70004C2D01082DE9F05F8246007800271546CC
:100B80008B460AF10104B946302801D09DB113E02B
:100B900014F8010B0127782803D0582801D045B15B
:100BA0000AE00DB1102D07D10027102514F8010B14
:100BB00002E0082500E00A250026B0460EE005FB0D
:100BC000080005FB06F1012701EB10461FFA80F82B
:100BD000B6F5803F00D3B94614F8010B294600F062
:100BE00018F80028EBDABBF1000F05D00FB1641E36
:100BF00000E05446CBF80040B9F1000F06D00EF0EB
:100C000063FB02210160C81EBDE8F09F48EA064070
:100C1000FAE73A2800D2303820F02002412A01D3E6
:100C2000A2F13700884201D34FF0FF30704770B512
:100C30008C1810F8015B15F0070301D110F8013B87
:100C40002A1106D110F8012B03E010F8016B01F80E
:100C5000016B5B1EF9D12B0705D40023521E0DD466
:100C600001F8013BFAE710F8013BCB1A921C03E0B4
:100C700013F8015B01F8015B521EF9D5A142D8D3EC
:100C8000002070BD1D484FF0FF010170002080F36F
:100C900009881B48016881F308881A484FF0805181
:100CA000016062B6FEE717484FF08051016070475F
:100CB00014484FF080510160704772B6EFF309801D
:100CC00028B1203880E8F00F0F490968086000B5A6
:100CD0000E4880475DF804EB0D480E490A78027013
:100CE00009480D490A680260106890E8F00F20304A
:100CF00080F309884EF0F40E62B6704722ED00E0F2
:100D00009C00002004ED00E048010020CD8F000889
:100D1000C6000020C70000204C01002021B18268DD
:100D200042F00102826003E0826822F001028260E8
:100D3000704721B1826842F48072826003E0826869
:100D400022F4807282607047014600208A6802F0B7
:100D500004020AB1012000E0002070470146002093
:100D60008A6802F008020AB1012000E00020704702
:100D700030B502460020002350680F4C20400D790A
:100D80000C6844EA05242043506090680B4C2040D6
:100D9000D1E902542C434D7944EA45042043906044
:100DA000D06A20F470000C7C641EE4B2234340EA55
:100DB0000350D06230BD0000FFFEF0FFFDF7F1FDF3
:100DC000F0B504460D4600200021092D11DDE06834
:100DD000A5F10A0606EB4607072606FA07F188433F
:100DE000A5F10A0606EB460603FA06F10843E060A1
:100DF0000CE0206905EB4507072606FA07F1884352
:100E000005EB450603FA06F108432061072A0FDACD
:100E1000606B561E06EB86071F2606FA07F188430D
:100E2000561E06EB860605FA06F10843606322E0CB
:100E30000D2A0FDA206BD61F06EB86071F2606FA4F
:100E400007F18843D61F06EB860605FA06F108432C
:100E5000206310E0E06AA2F10D0606EB86071F266C
:100E600006FA07F18843A2F10D0606EB860605FA9D
:100E700006F10843E062F0BD816841F0080181603D
:100E8000704721B1826842F4A002826003E0826868
:100E900022F4A00282607047816841F00401816001
:100EA000704700210160017141718160C1600121C1
:100EB000017470472DE9F04790B007468946904687
:100EC0001E4614210BA8FFF7D3F9142106A8FFF73B
:100ED000CFF978217E48FFF7CBF97E48D0F80A0099
:100EE0007B4908617C48007E012805D102217848B1
:100EF0006C3001F0DBFF19E078480078012805D15B
:100F0000032173486C3001F0D1FF0FE0744890F872
:100F100006020B2805D103216D486C3001F0C6FF95
:100F200004E002216A486C3001F0C0FF6A48007E8C
:100F300001280FD1002000F06DF905461DB90020F1
:100F400010B0BDE8F087052205F10B0160481C30A8
:100F50000CF0ACFF6248406B0A21B0FBF1F05C4939
:100F6000486139465A48303002F048F85A48007E05
:100F7000012819D100200EF015F9012828D1554873
:100F800090F83D000106534890F83E0041EA0041C8
:100F9000504890F83F0041EA00204E4991F8401037
:100FA00008434B49086013E04A4890F83D000106A9
:100FB000484890F83E0041EA0041464890F83F001A
:100FC00041EA0020434991F8401008434049086035
:100FD00049463F48623001F069FF41463C48001DE8
:100FE00001F064FF3E48D0F80202394988613C486C
:100FF00090F8381090F8392090F83A3090F83C008A
:10100000CDE9023204910190354890F83D000090FE
:10101000334890F83E00A0F1640332A214210BA8DB
:101020000EF03AF90446601C28B9214635A00EF0AE
:1010300023F9002084E72A4890F83F1090F84020D8
:1010400090F8413090F84300CDE9023204910190CC
:10105000234890F844000090214890F84500A0F102
:10106000640320A2142106A80EF016F90446601CA1
:1010700028B9214623A00EF0FFF8002060E71422D3
:101080000BA913483A30FFF7DAF8142206A91048E2
:101090004E30FFF7D4F820210D4880F8611080F819
:1010A0004D104FF47A70B6FBF0F100FB116010B9EF
:1010B0004FF47A7005E04FF47A70B6FBF0F100FB64
:1010C00011608246024A02210BF09CFB012037E7A7
:1010D000C8730020706000204C740020B8600020AD
:1010E000083F00203230253032642D253032642D07
:1010F000253032642D253032642D253032642D2583
:1011000030326400736E7072696E7466206572723C
:101110006F722C20746865206C656E2069732025C1
:101120006400000010B500200A498880C88008814A
:101130004881782107480C30FFF79AF87821054854
:101140008430FFF795F878210248FC30FFF790F8DB
:10115000012010BDEC7000202DE9FE4F04460E4624
:1011600003F00CF8074600200290019014B1062EFF
:1011700000DB17B90020BDE8FE8FA57894F8038046
:101180006078217840EA012945F6A520814534D1CF
:10119000E81CB04201D00020EDE7B8F1830F2CD15C
:1011A0006079217940EA012AA07940064FEA106B64
:1011B000E01D0090BAF5805F19D1A81C215C681C65
:1011C000205C41EA00200190A81C205C00F07F0018
:1011D000029039799DF8080061F3DF1000F5805026
:1011E0000199884208D102A801F0DAFD04E05A46CC
:1011F0005046009901F0E0FD00BF0120BBE7000070
:1012000001460A2901DD002070470148405CFBE7E8
:101210006060002010B50446204600F017F810BDAD
:101220000146012901DB0020704701EBC10000EB02
:101230000110024A02EBC000401CF5E77174002067
:1012400001480078704700001803002010B50446DC
:101250000CB1002010BD102202490348FEF7EFFF39
:101260000148F7E7E35D0020535F0020014609B124
:101270000020704701480078FBE70000DB020020F7
:1012800001460A2901DD002070470148405CFBE768
:101290005E6000200146012901DB00207047C1EBA0
:1012A000C100024A12F82000F8E70000FC500020BC
:1012B00001484079704700005D60002001480078D7
:1012C000704700005D60002001460748007E8842AC
:1012D00001DC00207047C1EBC10000EB4110034A64
:1012E00002EBC000F6E7000052020020DC510020B3
:1012F00010B53D484089401C3B4948814FF6FF707E
:10130000088108460088888008468088401EC8807A
:10131000084680884FF47A7190FBF1F201FB1200CD
:1013200008B9084607E0304880884FF47A7190FB8E
:10133000F1F201FB120084B22B4A0C32012120464B
:101340000BF060FA782228490C3101F1F000FEF729
:1013500076FF2548C088002819DD2348C0884FF44F
:101360007A7190FBF1F201FB120008B9084607E020
:101370001D48C0884FF47A7190FBF1F201FB120016
:1013800084B2194A8432012120460BF03BFA1648F8
:10139000808820B90021154802F006F822E01248A2
:1013A000808801280FD112490F480C3001F00EFF40
:1013B0000D4841894FF4FC5009F01CFE00210C48F7
:1013C00001F0F2FF0EE00B4907480C3001F0FEFE81
:1013D000054841894FF4F85009F00CFE00210548FA
:1013E00001F0E2FF012010BDEC7000200C0600208F
:1013F000F8050020E405002070B5044640E03848B8
:101400004089401C36494881084680880881084642
:10141000C08888800846C088401EC88078220C3169
:1014200001F1F000FEF70BFF78222D498431A1F184
:101430007800FEF704FF2A48C08800281FDD2848EE
:101440004089B0F57A7F1ADA2548C0884FF47A715E
:1014500090FBF1F201FB120008B9084607E02048B2
:10146000C0884FF47A7190FBF1F201FB120085B253
:101470001B4A8432012128460BF0C4F900E004E045
:10148000201EA4F10101CCB2B9D100BF1448C0881C
:1014900020B113484089B0F57A7F0FDB114910481D
:1014A0000C3001F093FE0E4841894FF4FC5009F0D6
:1014B000A1FD00210B4801F077FF0EE00A49084822
:1014C0000C3001F083FE064841894FF4F85009F0D2
:1014D00091FD0021044801F067FF012070BD00006C
:1014E000EC700020F8050020E405002070B50446EB
:1014F00054E046484089401E444948810846808857
:10150000C88008460089888078220C3101F1780073
:10151000FEF795FE78223D49FC31A1F1F000FEF77F
:101520008EFE3A480089002824DD38480089374972
:10153000096888421ED835480089401C3349088113
:10154000084600894FF47A7190FBF1F201FB12001A
:1015500008B9084607E02D4800894FF47A7190FBDE
:10156000F1F201FB120085B2284AFC320121284623
:101570000BF048F92548008928B1244800892349FF
:10158000096888420AD922480078401C204908701E
:1015900000201E4908810120488104E0201EA4F19A
:1015A0000101CCB2A5D100BF1948007802280DD1A5
:1015B0001648008950B90020164988700021164845
:1015C00001F0F2FE0020124908701CE00F488088EC
:1015D0004FF6FF71884207D100200E498870002124
:1015E0000D4801F0E1FE0EE00C4908480C3001F016
:1015F000EDFD064841894FF4F85009F0FBFC00214D
:10160000064801F0D1FE012070BD0000EC70002002
:101610008403002080030020C8030020E40500208C
:1016200002460A2A01DD002070470248815400BFAB
:10163000FAE70000606000200246032900DA0AB1E0
:1016400000207047014801700120FAE7DB0200200A
:1016500001460C48007E884201DC002070470948A2
:10166000007E012804D10020074A1070074A10703C
:1016700000220548401C4254801C42540A30425407
:101680000120EBE7520200205D60002018030020DB
:1016900010B5012800DB10BDC0EBC002054B03F8FC
:1016A00022100022C0EBC003024C04EB83031A7625
:1016B00000BFF0E7FC5000200146024841710120C4
:1016C000704700005D6000200246022901DA012A0D
:1016D00001DB00207047024881540120FAE7000036
:1016E000500200207047000010B5134807F006FDB7
:1016F000124908600846006811490968401A40F616
:10170000B83188420FD20D4800680D4908600D4875
:101710000078401CC0B20B49087003280ADB002087
:101720000870012010BD05480068054908600020C8
:10173000044908700020F5E7000000207403002031
:10174000780300207003002070B505460C4616464D
:101750000CB9002070BD032106488176617820789D
:1017600041EA00210348C1610021034801F01CFE49
:101770000120EFE7083F0020B403002038B50446FD
:10178000374A08214FF4FA6007F05CFC3548007EC8
:10179000012800D038BD6A4633A1364806F0CEFA9B
:1017A000BDF8000000B1F5E74FF48071324802F057
:1017B000DAFC2B4A0821642007F044FC4FF4006156
:1017C0002D4802F0CEFC4FF480512B4802F0C9FCAA
:1017D000234A0821FA2007F035FC0BF00BFD3DE011
:1017E000FFF766FD10B901F08BF931E00020FFF73B
:1017F00047FD01282CD1214804F076FF88B1002054
:101800001F4908700120FFF76DFF0020FFF754FF0C
:101810000BF08AFF124A08214FF47A7007F012FC8D
:1018200016E017480078401CC0B21549087003281C
:101830000EDD00200870FFF755FF0020FFF73CFF8A
:101840000BF072FF064A08214FF47A7007F0FAFB9A
:10185000034A08214FF47A7007F0F4FBC0E7000058
:10186000000000204C74002073656E646D75746513
:101870007800000018510020000801404451002069
:10188000A802002070B588B006460025182101A8DE
:10189000FEF7EEFC9C4A08214FF4FA6007F0D2FBF9
:1018A0000CF096FD07AB142298A19B4806F06CFC47
:1018B000BDF81C0028B195A198A00DF0DDFC08B082
:1018C00070BD9B48007E012800D0F8E700240DE0A1
:1018D0008D4807F013FC974941F82400084650F85A
:1018E0002400954941F82400601CC4B29348007E4E
:1018F000A042EDDC06E1002407E0834807F0FEFB90
:101900008C4941F82400601CC4B28C48007EA0427F
:10191000F3DC8A48007E00B900BF4FF47A7040F2D1
:101920001A43874A01A900907B480FF0A1FE0028C6
:101930007FD101980A287CD18048007E012823D1DC
:101940000020FFF79DFC012819D1FFF7B1FC012809
:1019500004D17B4805990BF0B9FC09E0059881B2E8
:1019600077480DF029FC18B1724800687249086088
:1019700040F21A417248FEF77BFC00BF59E0704804
:1019800005990BF0A3FC54E06D4805990BF09EFC03
:1019900000244AE0C4EBC40000EB4410694901EBA9
:1019A000C00090F8360101283DD10020C4EBC401ED
:1019B00001EB4411634A02EBC10181F8360124BBFB
:1019C00061480068401C60490860C4EBC40202EB37
:1019D00044125C4B03EBC202B2F83411C4EBC402F4
:1019E00002EB441203EBC20202F108000DF0E4FB2B
:1019F000A8B1504850F824004F4941F824005348FA
:101A00000068401C5149086009E001210846FFF7C1
:101A100007FE484850F82400474941F824000020B8
:101A20004B4941F82400601CC4B24448007EA042E7
:101A3000B0DC002462E02046FFF722FC012855D1EB
:101A40003E48007E012819DD414850F82400401C22
:101A50003F4941F824000D2810D3002041F824000C
:101A600034B900231A4619461E200FF043FF05E043
:101A700000231A4601211F200FF03CFF2D4850F88B
:101A800024002D4951F8241088420ED3294850F8DB
:101A90002400294951F82410401A4EF6602188424A
:101AA00001D3012011E000200FE0224850F824006B
:101AB000214951F82410C1F1FF3108444EF660214C
:101AC000884201D3012000E00020A8B1194850F855
:101AD0002400194941F824002046FFF7B9FD5CB9FC
:101AE0001C480068401C1B49086005E0114850F87C
:101AF0002400114941F82400601CC4B20F48007E44
:101B0000A04298DCF7E60000000000203447207374
:101B1000656E64206D7100004C5400204F5351439A
:101B20007265617465202573204661696C00000050
:101B30004C740020C8020020C00200205202002085
:101B40007C540020DC510020B0020020AC020020B8
:101B5000B8020020B4020020F0B589B00746182171
:101B600002A8FEF785FB0020FFF75AFB054601207F
:101B7000FFF756FB06460024AE4A08214FF4FA60F0
:101B800007F060FAAC48007E012801D009B0F0BD32
:101B900008AB1422A9A1AC4806F0F6FABDF8200063
:101BA00020B1A6A1A9A00DF067FBEFE740E14FF43B
:101BB0007A700A23AA4A02A90090A3480FF058FDA0
:101BC00000286FD1FFF774FB012800D130E10498A1
:101BD000202868D2DFE800F0109B9B269B685258B3
:101BE0007376797E83889B898A369B6D70579B9B21
:101BF0009B9B9B9B9B9B8B93FFF760FB012810D1CA
:101C00000020FFF73DFB01280BD1059848B9059945
:101C1000C8B20DF007FB9348007E012801DD0DF0EE
:101C20009DFA75E0FFF74AFB01280AD10020FFF773
:101C300027FB012805D1059818B90599C8B20DF000
:101C4000F8FA65E0059890B90599C8B201210CF041
:101C50003BFF0599C8B20121FFF71AFD0599C8B2EB
:101C60000DF0B2FA0599C8B200210DF0ECFA7D48EA
:101C7000007E012801DD0CF067FF49E00599C8B23C
:101C80000DF0B7FA44E043E0059828B9012229464F
:101C900000200AF00DF904E00122314610460AF056
:101CA00007F935E035E032E00599C8B20DF0AFFA3A
:101CB0002EE00DF0AAFA2BE00DF0B0FA28E003F0C8
:101CC000F3FE25E00DF0ACFA22E00599C8B20DF064
:101CD0008DFA1DE00599C8B20DF081FA18E005995A
:101CE000C8B20DF0ADFA13E012E011E010E05D486B
:101CF000007E012802DD00200BF02AFD08E0594893
:101D0000007E012802DD01200BF022FD00E000BF73
:101D100000BFFFF7CDFA012800D189E0002410E0D0
:101D2000FFF7CCFA01280AD12046FFF7A9FA0128CB
:101D300005D114B90DF064FA01E00DF02BF9601C27
:101D4000C4B24848007EA042EADC4648007E012832
:101D500027DD454800684549096888420CD3424858
:101D6000006842490968401A42F21071884201D362
:101D700001200FE000200DE03C480068C0F1FF307A
:101D800039490968084442F21071884201D30120A0
:101D900000E0002028B134480068344908600BF0A6
:101DA0001BFD002441E02046FFF774FA01281AD1F8
:101DB000FFF784FA01282AD12046FFF761FA0128AB
:101DC00025D12046FFF71CFA012820D12CB900228A
:101DD000294620460AF06CF819E0002231462046D8
:101DE0000AF066F813E0134807F088F9C4EBC40161
:101DF0001F4A02EB81014860C4EBC400114601EBAD
:101E000080004068C4EBC40102EB81018860FFF7E9
:101E100055FA012807D12046FFF732FA012802D1EE
:101E20002046FFF7EDF9601CC4B2012CBBDB00BFFC
:101E3000BDE60000000000204C74002034472073F1
:101E4000656E64206D710000F05A00204F535143BD
:101E50007265617465202573204661696C0000001D
:101E6000205B002052020020D0020020D40200207B
:101E7000FC50002088B000200690079000BF00BFF3
:101E800018216846FEF7F4F909F0AEF909F07EFB77
:101E9000412009F0C3F9674A08214FF47A7007F02E
:101EA000D1F8C6E0FFF704FA012806D1614A0821FB
:101EB0004FF47A7007F0C6F8BBE002F05FF9044611
:101EC0005C4A08214FF47A7007F0BCF80FF0CAFFA3
:101ED0005948007A01284CD15848844202D05848C9
:101EE000844246D15748007E01282CD10DF0DAFEFD
:101EF00000283ED0544855490A6802604A6842604A
:101F0000098901810020FFF77BF9012806D1002310
:101F10001A4619460B200FF0EDFC00E000BF4021EF
:101F20004B4802F020F9434A0821642007F08AF860
:101F30004021474802F015F93E4A082140F6B830E2
:101F400007F080F815E010F03BF890B140214048D0
:101F500002F009F9374A0821642007F073F840219C
:101F60003B4802F0FEF8334A082140F6B83007F04B
:101F700069F83148007A02285AD13248007E012897
:101F80002FD100200DF00EF9012851D10DF08AFE5D
:101F900000284DD00A222D492B48FEF78DF930B983
:101FA00000230422194602200FF0A2FE05E00023C0
:101FB0001A46284918460FF00FFB4021244802F02A
:101FC000D2F81C4A0821642007F03CF84021204840
:101FD00002F0C7F8174A082140F6B83007F032F887
:101FE00026E01D48D0F802026421B0FBF1F5284636
:101FF00010F0FEF9E0B11048007898B9402114487B
:1020000002F0B1F80B4A0821642007F01BF84021C8
:102010000F4802F0A6F8074A082140F6B83007F04A
:1020200011F805E000231A460C4918460FF0D4FABF
:1020300000BF37E700000020B8600020B403002094
:10204000F40400204C740020AD600020C460002027
:10205000001C014054040020083F002068040020B8
:1020600008B50EF00DFC6A460821642006F0EAFF70
:102070000EF097FC0DF0A2FD17E0FFF719F901280B
:1020800000D112E00FF0D0F90EF066FC0DF040FF29
:102090000EF0ECFB05480EF0E3FA00F0DBFC044A1E
:1020A0000821012006F0CEFF00BFE6E7083F002030
:1020B0000000002000B58BB00AA803210022059281
:1020C000CDE9062108901420FA211922424BCDE9CE
:1020D0000132CDE903101E200023404A40A10090A8
:1020E000424806F0E1FB0AA8032100220592CDE94F
:1020F00006210890142096210F223D4BCDE9013294
:10210000CDE90310062000233A4A3BA100903D4848
:1021100006F0CAFB0AA8032100220592CDE9062198
:10212000089014204FF4AF712322374BCDE90132D0
:10213000CDE9031007200023344A35A10090374829
:1021400006F0B2FB0AA8032100220592CDE9062180
:10215000089014204FF496711E22314BCDE90132C4
:10216000CDE90310082000232E4A2FA1009031480A
:1021700006F09AFB0AA8032100220592CDE9062168
:1021800008901420FA2119222B4BCDE90132CDE918
:10219000031003200023294A29A100902B4806F0B0
:1021A00083FB0AA8032100220592CDE906210890AD
:1021B00014204FF496711E22254BCDE90132CDE952
:1021C00003100A200023234A23A10090254806F08B
:1021D0006BFB0BB000BD000098090020751E0008C5
:1021E000417070204361726400000000E00800202C
:1021F000380E002061200008417070204368617231
:1022000067650000800D0020481100206922000849
:10221000417070204477696E00000000901000202B
:10222000781700207D1700084170702034474D61F9
:10223000696E0000C0160020E01C00208518000810
:10224000417070203447526563760000281C0020DE
:1022500080210020591B00084170702034475365CD
:102260006E640000C820002030B589B00546002407
:10227000182103A8FDF7FCFF9B4A08214FF47A7050
:1022800006F0E0FE0CF014F90021984801F08CF8FB
:102290000EF0C4FE09F082FE9548007E012801D1AF
:1022A00009F07CFE01AB142292A1964805F06CFF68
:1022B000BDF8040028B18FA193A00CF0DDFF09B098
:1022C00030BD10E1FEF7F4FF012800D10BE14FF41F
:1022D000FA703223914A03A900908A480FF0C8F996
:1022E00000287DD10398012846D0042807D006286D
:1022F00077D10798C1B28948FEF72EFFD5E004B91F
:10230000D3E087490698884217D0864906988842C4
:1023100013D08549069888420FD084490698884290
:102320000BD083490698884207D082490698884294
:1023300003D081490698884216D1794884421AD040
:102340007848844217D07848844214D07748844231
:1023500011D0774884420ED00220784988702146F7
:10236000069801F021F806E00020744988702146A3
:10237000069801F019F898E0059820B1012811D0CD
:1023800002287DD151E05A48007E012809D101215F
:1023900000200CF099FB00231A46194618460FF04E
:1023A000A9FA7FE0664867490A6802638A888286DC
:1023B000897980F836100F38D0F84610C0F84A10E6
:1023C0000698C1B25E480F3880F806124848007E71
:1023D000012815D10BF05AFD00231A46194601E0D9
:1023E00064E061E011200FF085FA57490B68544909
:1023F0000F3991F806020F220021FEF75BFD13E072
:102400004A48A04206D002204C49887021464648DE
:1024100000F0CAFF4C490B6849490F3991F8060290
:102420000F220121FEF746FD3CE0454845490A6878
:1024300002638A888286897980F83610002010F03D
:1024400053F83F490F39C1F84A000698C1B23C48D9
:102450000F3880F806122648007E012814D10BF0B0
:1024600015FD00231A46194611200FF043FA36498C
:102470000B6833490F3991F806020F22002100E062
:102480000FE0FEF717FD09E02F490B682C490F39C3
:1024900091F806020F220121FEF70CFD0FF0AEFCB1
:1024A00000E000BF00BF00E000BF00BF01F066FE1B
:1024B00004461CB1E06808B1E06880471F48008806
:1024C000012804D10220029002A800F069FC1C49F6
:1024D0000F3908780FF0F4FA0EF006FB0EF01CFC32
:1024E0000FF0C0FA00BFEDE600000020E00400207D
:1024F0004C7400206477696E207461736B206D7179
:10250000000000002C7600204F5351437265617427
:1025100065202573204661696C000000C0760020AC
:102520004004002054040020680400207C040020A3
:1025300090040020F4040020700600208003002096
:10254000173F002020000020EC70002008B5002577
:1025500000F0CDF900F0D3F900F0C1F90646A24829
:102560000068B6FBF0F7384606F006FE684606F04F
:1025700021F90BF043FC01F09FFA0EF099FC03F0F7
:102580008FFB9AA00CF078FE90200EF00FFA03F06B
:1025900027FE41F61F4140F2E7300BF075FDFFF7D3
:1025A00089FD9F4800689F49086008460068000E42
:1025B000096801F47F0140EA11209A49098801F471
:1025C0007F4140EA01209749097840EA0160954936
:1025D00008609348001D0068934908600846006839
:1025E000000E096801F47F0140EA11208E49098834
:1025F00001F47F4140EA01208B49097840EA0160FB
:10260000894908608648083000688849086008469B
:102610000068000E096801F47F0140EA1120834937
:10262000098801F47F4140EA01208049097840EAA5
:1026300001607E490860084603687B480268794863
:1026400001687BA00CF018FE7F4876490968C0F845
:10265000151075490968C0F8191074490968C0F85F
:102660001D1000BF08E078481530405D18B9AA2158
:102670007548153041556D1C0C2DF4D340F2537143
:10268000062003F0D9FAADE003F0F6FA6F480068CF
:10269000401C6E4908606A460821642006F0D2FC9E
:1026A00001F036F96A4880786A4908716848C0784C
:1026B000643088716648407848716748007888704F
:1026C0006548407848706448807808706348D0F85E
:1026D000A0006249D1F8A41001446048D0F8A000DD
:1026E00064225043B0FBF1F45D480068A04201DA77
:1026F0005B4804605B48D0F8A0005A49D1F8A410A8
:1027000001445848D0F8A00064225043B0FBF1F4D3
:1027100055480068A04201DA534804605348D0F895
:10272000A0005249D1F8A41001445048D0F8A000AC
:1027300064225043B0FBF1F44D480068A04201DA36
:102740004B4804604B48D0F8A0004A49D1F8A41087
:1027500001444848D0F8A00064225043B0FBF1F493
:1027600045480068A04201DA434804604348D0F875
:10277000A0004249D1F8A41001444048D0F8A0007C
:1027800064225043B0FBF1F43D480068A04201DAF6
:102790003B4804603B48D0F8A0003A49D1F8A41067
:1027A00001443848D0F8A00064225043B0FBF1F453
:1027B00035480068A04201DA334804603348D0F855
:1027C000A0003249D1F8A41001443048D0F8A0004C
:1027D00064225043B0FBF1F42D480068A04201DAB6
:1027E0002B48046050E7000064270108757361728C
:1027F0007420496E69742E2E2E2E2E2E2E2E2E2EE5
:102800002E2E2E2E2E2E2E2E2E2E2E2E2E2E2E2EE8
:102810002E2E2E2E2E2E2E2E2E2E2E2E0D0A000079
:10282000E8F7FF1F300000203400002038000020AF
:102830004D43552049643A25303878202530387882
:1028400020253038780A0000706000208C060020B7
:102850001C02002020000020180200209806002002
:1028600004000020E008002008000020800D002067
:102870000C0000209010002010000020C016002046
:1028800014000020281C002018000020C820002070
:102890001C00002010B50421064881760021C1618A
:1028A0000220054988700021044800F07DFD0120C8
:1028B00010BD0000083F002080030020B40300206A
:1028C0000146992901DD0020704701F00F000B112E
:1028D00003EB830300EB4300C2B21046F4E700B5FC
:1028E00085B0684609F0D4F8009805B000BD10B571
:1028F0004FF4407005F0E8F810BD00BFFEE710B5DA
:1029000000F020F800F01AF810BD000010B5002407
:1029100000BF00BFFDF74CFC044600BF00BF102104
:10292000054803F02BFD00BF00BF2046FDF744FC27
:1029300000BF00BF10BD00006839002010B5FFF7D0
:10294000E5FF10BD10B500200249086000F00AF84C
:1029500010BD0000500100200149086070470000D0
:102960005001002010B5FFF7BAFF04460848006880
:1029700040F080700649086000200649486008461B
:10298000006840F0010008602046FFF7E5FF10BD39
:10299000FCED00E0001000E00149486870470000CD
:1029A000001000E010B50221002009F089FE0F4957
:1029B00008600221012009F083FE0D490860022110
:1029C000132009F07DFE0B490860084801680AA041
:1029D0000CF052FC064801680EA00CF04DFC0548B6
:1029E000016813A00CF048FC10BD0000B4010020E9
:1029F000B8010020BC010020D0B4C8EBB5C45379A5
:102A000073636F6E526567BCC4B4E6C6F73A256C53
:102A1000780A2000D0B4C8EBB5C4456D75636F6EFD
:102A2000526567BCC4B4E6C6F73A256C780A200044
:102A3000D0B4C8EBB5C4456D75636F6E325265672F
:102A4000BCC4B4E6C6F7BCC4B4E6C6F73A256C7895
:102A50000A20000010B50E480078012815D10D4855
:102A60000DF094FB012810D10B4A0821C82006F074
:102A7000E9FA0220064908720020087007488078A9
:102A8000022802D1002005498870012010BD0000F5
:102A9000B8600020083F00200000002080030020D4
:102AA00010B500200449086004230A4600210520CF
:102AB0000EF08CFA012010BDEC70002070B50646B7
:102AC0000C4615460CB1042D01D0002070BD2078B5
:102AD0000006617840EA0140A17840EA0120E178EF
:102AE00008430649086225230A46002101200EF00A
:102AF0006DFA04F033FA0120E8E700004C7400207E
:102B000010B5FEF7DBFB012801D003F08DFFFEF7C7
:102B1000D5FB01280CD024480068401C22490860DD
:102B2000032803D9002008600AF064FB002010BDD0
:102B3000002422E02046FEF7A3FB01280ED03CB97A
:102B40001A48C28800F10801204603F04BFC05E05A
:102B500042F2486216A1204603F044FC2046FEF7EC
:102B60008FFB012807D010480068401C0E49086000
:102B700020460AF033FB601CC4B20C48007EA04221
:102B8000D8DC0020FEF77CFB01280AD0064800684C
:102B9000032806D90020044908600AF02BFB002016
:102BA000C5E70120C3E70000A40200205202002074
:102BB0003131342E35352E3138362E323036000054
:102BC0000146632901DD002070470A2091FBF0F3E4
:102BD00000FB13100A2391FBF3F300EB0310C2B2C6
:102BE0001046F1E721B1026842F00102026004E000
:102BF00002684FF6FE731A400260704700210160C0
:102C000041608160C160016141618161C1610162B6
:102C100041628162704710B50022026847F6F07386
:102C20009A430C6A8B6823430C6923434C69234302
:102C30008C692343CC6923434C6A23438C6A234326
:102C40001A430260CB6843600B6883604B68C360C3
:102C500010BD000001684FF6FE72114001600021B6
:102C6000016041608160C1604B49884208D14A4996
:102C70000839496841F00F01474A083A51608AE033
:102C800045491431884208D143490839496841F01F
:102C9000F001414A083A51607DE03F4928318842BD
:102CA00008D13D490839496841F470613A4A083A07
:102CB000516070E038493C31884208D136490839C2
:102CC000496841F47041344A083A516063E032493E
:102CD0005031884208D130490839496841F470219F
:102CE0002D4A083A516056E02B496431884208D198
:102CF00029490839496841F47001274A083A516066
:102D000049E025497831884208D123490839496882
:102D100041F07061204A083A51603CE01F49884206
:102D200006D1011F096841F00F01021F116032E056
:102D30001A491431884208D11849091F096841F01D
:102D4000F001164A121F116025E01449283188420B
:102D500008D11249091F096841F470610F4A121F16
:102D6000116018E00D493C31884208D10B49091F18
:102D7000096841F47041094A121F11600BE00749CC
:102D80005031884207D10549091F096841F4702173
:102D9000024A121F116070470800024008040240F6
:102DA00070B5054601F0EAF904460CB9A06810B107
:102DB0002846A168884770BD2DE9F04105460E46BA
:102DC00017460DB106B117B90020BDE8F081002407
:102DD00014E00C4830F83400A8420DD1094800EB4B
:102DE000C400406840B1074800EBC4003A46314691
:102DF000436828469847E8E7601CC4B2102CE8D323
:102E00000120E2E7482C01087047002107E000227A
:102E100001E0531C9AB26E2AFBDB4B1C99B2814233
:102E2000F5DB704737B5A4B0044601F0A7F90546B5
:102E300015B9002027B030BD782106A8FDF718FA93
:102E40009DF894009DF895109DF896209DF8983077
:102E5000CDE90132CDE903109DF8990000909DF86D
:102E60009A0000F26C7308A2782106A80CF014FAFC
:102E7000217941F2050242EAC1101E2206A908F09A
:102E8000E1F80120D6E70000253034642D2D2530EF
:102E900032642D2D253032642D2D253032643A3A9E
:102EA000253032643A3A2530326400002DE9F04191
:102EB00006460D46002401F061F90746112D00DA9F
:102EC00017B90020BDE8F081002417E004EB4400AE
:102ED0000D4911F82000A8420ED104EB44000B4626
:102EE00003EB8000028904EB440003EB800041689F
:102EF0003046FDF7A4F903E0601CC4B2112CE5DBF9
:102F000000BF0120DEE700008C2A01082DE9F04116
:102F100006460D46002401F031F90746112D00DA6E
:102F200017B90020BDE8F081002417E004EB44004D
:102F30000D4911F82000A8420ED104EB44000B46C5
:102F400003EB8000027A04EB440003EB800041684D
:102F5000304608F077F803E0601CC4B2112CE5DBC2
:102F600000BF0120DEE700008C2A010837B5A4B0BD
:102F7000044601F003F9054615B9002027B030BD1D
:102F8000782106A8FDF774F99DF894009DF8951036
:102F90009DF896209DF89830CDE90132CDE90310D7
:102FA0009DF8990000909DF89A0000F26C730BA2B6
:102FB000782106A80CF070F91E2206A9204608F018
:102FC00041F84FF6C07204EA0201303188B24FF680
:102FD000FF710AF015FE0120D0E7000025303464AF
:102FE0002D253032642D2530326420253032643A6C
:102FF000253032643A253032640000002DE9F0417A
:1030000006460D46002401F0B9F80746142D00DAF3
:1030100017B90020BDE8F081002417E004EB44005C
:103020000D4911F82000A8420ED104EB44000B46D4
:1030300003EB8000028904EB440003EB800041684D
:103040003046FDF7FCF803E0601CC4B2142CE5DB4D
:1030500000BF0120DEE70000582B010810B55748DB
:10306000007E012837D10020FEF70AF990B1002038
:1030700053490870084600785249097888421BD0A5
:103080004F4800784F490870012142F2600007F074
:103090009DFF11E001204A4908700846007849491F
:1030A0000978884208D046480078464908700021CF
:1030B00042F2600007F08AFFFEF7C2F860B94248AA
:1030C0000078012808D1002142F2500007F07EFF6D
:1030D00000203D4908706FE0FEF7B2F818B1FEF726
:1030E000AFF8632812D1002035494870084640786F
:1030F0003449497888425FD0314840783149487036
:10310000002142F2500007F061FF55E0FEF798F809
:10311000012811D12A494870084640782949497840
:10312000884249D02648407826494870012142F219
:10313000500007F04BFF3FE0FEF782F8142812DA48
:1031400002201F494870084640781E494978884245
:1031500032D01B4840781B494870022142F250008F
:1031600007F034FF28E0FEF76BF8192812DA032085
:1031700013494870084640781249497888421BD064
:103180000F4840780F494870032142F2500007F081
:103190001DFF11E004200A4948700846407809499B
:1031A0004978884208D0064840780649487004218A
:1031B00042F2500007F00AFF012010BD4C740020BD
:1031C00090030020920300209403002070B5044671
:1031D0000D4678215F48FDF74BF8207C0006218AD8
:1031E00001F47F4140EA0120216901F47F0140EAB6
:1031F0001120216940EA1160564908600A2204F151
:103200006C015448001DFDF71AF8142204F11C014A
:1032100050480E30FDF713F8207D0006A18A01F416
:103220007F4140EA0120616901F47F0140EA1120F9
:10323000616940EA1160474948620A2204F130019D
:1032400044482830FCF7FBFF4249206848630846A1
:10325000D4F862108163D4F86610C163B4F86A10C0
:10326000A0F84010423061680160A1684160A18906
:1032700001816421A069B0FBF1F000066422A1691C
:10328000B1FBF2F101F47F4140EA0120A169B1FBF9
:10329000F2F101F47F0140EA1120A169B1FBF2F1E2
:1032A00040EA11602B49C864142204F13A0129480C
:1032B0005030FCF7C4FF142204F14E01254864305D
:1032C000FCF7BDFF297941F2010242EAC110222236
:1032D000204907F0B7FE297941F2120242EAC110F3
:1032E00004221C49243107F0ADFE297941F2140271
:1032F00042EAC1100A221749283107F0A3FE2979B2
:1033000041F2190242EAC11004221249343107F095
:1033100099FE297941F21B0242EAC1100A220D49A5
:10332000383107F08FFE29794FF4815242EAC110FB
:103330000E220849423107F085FE297941F25002F8
:1033400042EAC11028220349503107F07BFE0120D8
:1033500070BD0000607200201CB508480168009133
:103360008188ADF8041080798DF806004FF4405044
:10337000DDE90012FFF7FAFD00201CBD200000204F
:103380001CB504460748016800918188ADF8041017
:1033900080798DF806002046DDE90012FFF742FD36
:1033A00000201CBD2000002070B504460D4604B965
:1033B00070BD05B125600C480460208A0B49088067
:1033C00009490968087907F0FBFD07480068C068EB
:1033D00040B105480068C068401C18B1024909683E
:1033E000C868804700BFE3E77C030020800300201B
:1033F0002DE9F04107460E46144606B10CB9BDE86A
:10340000F08100F01DF8E11CC8B202F0A7FE822096
:1034100002F0A4FE384602F0D9FE002504E0705DFB
:1034200002F09CFE681CC5B2A542F8DBFF2002F04A
:1034300095FEFF2002F092FE02F0B2FE00BFDEE732
:1034400010B545F6A52002F0C1FE10BD014600BF33
:10345000080900EB8000420001F00F001044C0B2E8
:1034600070470146002204E0501CC2B2A1F10A00DC
:10347000C1B20A29F8DA100741EA1060704700006B
:1034800010B50121080708F0BFFA012007F012FC6F
:10349000012008F0D9FA002008F0D6FA012008F03F
:1034A00079FC00BF412008F057FC0028FAD04FF407
:1034B000807008F0E5FAFF200D4908607F200D4973
:1034C0000860012008F0D6FA00F054FA09480068B4
:1034D000094948600648006888600020086008467E
:1034E00000F0E4F810B905A00BF0C6FE10BD000016
:1034F0002C02002028020020FC3E002045525443AC
:10350000205072657363616C657220436F6E6669EB
:1035100067206661696C656421210D0A0000000066
:1035200008B50022009200200021104A126802F023
:103530004002CAB9421E0D4B1A6000BF0B4A126806
:1035400002F04001009A521C0092009AB2F5803FAE
:1035500001D00029F2D0054A126802F040020AB1F7
:10356000012002E0002000E0012008BD0C280040FE
:103570000348006820F0800001490860704700009F
:103580000C28004038B505460C4600200090134832
:10359000006800901148001F006811490840009021
:1035A0000098000CE0700098C0F304206070009850
:1035B00000F03F00A0700098C0F3423020705DB969
:1035C000E078FFF743FFE0706078FFF73FFF60703F
:1035D000A078FFF73BFFA07038BD0000082800402E
:1035E0003FFFFF0038B505460C4600200090144808
:1035F000006800901248083800681249084000909E
:103600000098C0F3054020700098C0F30620607059
:10361000009800F07F00A070009800F48000000C7B
:10362000E0705DB92078FFF711FF20706078FFF738
:103630000DFF6070A078FFF709FFA07038BD000093
:10364000082800407F7F7F00CA22174B1A60532250
:103650001A6091B1144A1C3A126820F004031A430C
:10366000114B1C3B1A60104A1C32126800F0040314
:103670001A430D4B1C331A6011E00B4A1C3A1268B6
:1036800020F004039A43084B1C3B1A60064A1C3284
:10369000126800F004039A43034B1C331A60FF22A4
:1036A000014B1A60704700002428004030B50446E2
:1036B0000025CA201549086053200860FFF730FF35
:1036C00000B91DE011481C38006820F040000F4987
:1036D0001C39086008460068216808430B491C39FA
:1036E00008600A491439A068086008460068A18883
:1036F00040EA0140054914390860FFF739FF012508
:10370000FF2002490860284630BD00002428004000
:1037100008B501460020009004480090009800EB96
:10372000810000900098006808BD0000502800400B
:103730002DE9F04105460C46002600274DB960787A
:1037400000F01000102804D1607820F010000A303A
:10375000607005B908E06078FFF778FE0646A0784B
:10376000FFF774FE064600BF55B1E07800046178AB
:1037700040EA0120A1780843217840EA413611E06F
:10378000E078FFF76EFE4FEA00486078FFF769FEC9
:1037900048EA0028A078FFF764FE48EA000820788D
:1037A00048EA4036CA201249086053200860FFF7F3
:1037B000B7FE08B9002714E00E4830400C49203904
:1037C0000860FFF7D5FE0A481C38006800F02000AA
:1037D00030B900F0CFF808B9002702E0012700E077
:1037E0000127FF20024908603846BDE8F08100004B
:1037F000242800403FFFFF002DE9F04105460C461C
:10380000002600274DB92E48006800F0400000B1A6
:1038100002E00020E07000BF0DE02948006800F0E1
:10382000400020B12078FFF711FE064602E000209C
:10383000E07000BF00BF55B120780004617840EA15
:103840000120A1780843E17840EA014611E02078A0
:10385000FFF707FE4FEA00486078FFF702FE48EAEC
:103860000028A078FFF7FDFD48EA0008E07848EA64
:103870000046CA2012491C31086053200860FFF737
:103880004FFE08B9002713E00E4830400C490839B4
:103890000860FFF76DFE0A48006800F0200030B9AC
:1038A00000F068F808B9002702E0012700E00127CE
:1038B000FF2003491C3108603846BDE8F081000054
:1038C000082800407F7F7F0010B500200E49C87097
:1038D0000820087010204870002088700120FFF731
:1038E0008BFF05200949087009208870072048705F
:1038F0002220C8700120FFF71BFF43F2F2210020B5
:1039000000F068F810BD0000180200201C02002022
:1039100010B504490020FFF735FE03490020FFF7EA
:1039200061FE10BD1C020020180200200EB502200E
:103930008DF8080001208DF80B008DF8090000209B
:103940008DF80A0002A804F087F84FF400100090E8
:1039500001208DF8060000208DF8040008208DF865
:103960000500684600F044F80121C803FFF76CFE2B
:103970000EBD000008B50022009200200021CA22DE
:10398000134B1A6053221A60114A183A126822F037
:10399000A0020F4B183B1A6000BF0D4A183A12687C
:1039A00002F02001009A521C0092009AB2F5003FEA
:1039B00001D00029F1D0064A183A126802F020021C
:1039C0000AB1012000E00020FF22014B1A6008BD6F
:1039D0002428004008B500220092044A0092009A70
:1039E00002EB80020092009A116008BD502800404E
:1039F000002123498279002A3AD00A4612680368D6
:103A00009A430B461A600A1D126803689A430B1DFD
:103A10001A60027911440A6803681A430A60184A56
:103A20000832126803689A43154B08331A601A1D4E
:103A3000126803689A43124B0C331A604279102AB9
:103A40000ED11A1F126803681A430D4B08331A600F
:103A50001A1D126803681A43094B0C331A600DE0F3
:103A60000749427911440A6803681A430A6005E06D
:103A7000027911440A6803689A430A60704700009B
:103A80000004014070B505460C4616460CB90020EE
:103A900070BD0121064881766178207841EA0021D5
:103AA0000348C16100210348FFF77EFC0120EFE7D6
:103AB000083F0020B403002008B50020009010212A
:103AC0004E4800F050FB09F085FD09F073FD002021
:103AD000009009F08FFD09F099FC012802D109F04E
:103AE000E3FC0090009820F0FF00454988420DD08B
:103AF00044490098884209D00520FFF786F909F06B
:103B000085FC012802D109F0CFFC009000203E493D
:103B100008603C49491E0098884204D14FF47E2039
:103B2000394908605EE039490098884207D14FF46E
:103B3000FC203549086001203549087052E03349BE
:103B4000491C0098884206D0009820F470402D4906
:103B5000491E884207D14FF47E202B49086001207E
:103B60002B4908703EE029494C390098884207D11A
:103B70004FF4FF102449086001202549087031E006
:103B8000224943390098884206D122481E490860DC
:103B900001201F49087025E0009820F0FF00184917
:103BA000884205D0009820F470401649884204D11C
:103BB0004FF4FF101449086014E0009820F0FF0053
:103BC0001549884206D0009820F470400D49491CE0
:103BD000884203D10F480C49086003E04FF4FF10FE
:103BE000094908600D490098884202D109480649F0
:103BF0000860002009F0FEFC08BD0000000801403C
:103C000000461F001530EF00680300208D25BF001F
:103C10006C03002000E03F0000471F0017405E00DB
:103C200008B5684600F0A1FA0120ADF800000020B8
:103C30008DF803006946024800F004F808BD000052
:103C4000000801402DE9F041024600250026002031
:103C500000230024002791F803C00CF00F0591F811
:103C600003C00CF0100CBCF1000F03D091F802C09F
:103C70004CEA050591F800C0BCF1000F31D0146882
:103C800000202BE04FF0010C0CFA00F3B1F800C05B
:103C90000CEA03069E4220D183004FF00F0C0CFA71
:103CA00003F7BC4305FA03FC4CEA040491F803C093
:103CB000BCF1280F06D14FF0010C0CFA00FCC2F841
:103CC00014C00AE091F803C0BCF1480F05D14FF0D1
:103CD000010C0CFA00FCC2F810C0401C0828D1D31B
:103CE0001460B1F800C0BCF1FF0F34DD546800204F
:103CF0002EE000F1080C4FF0010808FA0CF3B1F8BF
:103D000000C00CEA03069E4221D183004FF00F0C45
:103D10000CFA03F7BC4305FA03FC4CEA040491F8DF
:103D200003C0BCF1280F05D100F1080C08FA0CF80B
:103D3000C2F8148091F803C0BCF1480F07D100F11C
:103D4000080C4FF0010808FA0CF8C2F81080401C6B
:103D50000828CED35460BDE8F0810000F0B50446D9
:103D6000B4F1004F72D90023002224F00045EB0982
:103D700005F07F052A0905F00F05052B03D09700F4
:103D800005FA07F603E05708BF0005FA07F6062B09
:103D900015D2DFE803F00305080B0E11EA480FE027
:103DA000E948001D0CE0E848083009E0E6480C301E
:103DB00006E0E548103003E0E348143000E000BFBF
:103DC00000BF5AB9052B04D1076827F00307076025
:103DD0004AE0076827F00F07076045E0012A0BD18A
:103DE000052B04D1076827F00C0707603CE0076843
:103DF00027F0F007076037E0022A0BD1052B04D12A
:103E0000076827F0300707602EE0076827F470671F
:103E1000076029E0032A0BD1052B04D1076827F09E
:103E2000C007076020E0076827F4704707601BE0C1
:103E3000042A04D1076827F47027076014E0052AD4
:103E400005D1076827F4700707600DE012E0062A25
:103E500004D1076827F07067076005E0072A03D1DF
:103E6000076827F070470760012902D107683743C8
:103E7000076067E1B4F5406F77D020DC402C75D047
:103E80000CDC042C3FD004DC012C4ED0022C6ED173
:103E900038E0102C59D0202CF9D169E0B4F5007F1E
:103EA00076D005DC802C77D0B4F5807FEFD197E019
:103EB000B4F5407F6ED0B4F5006FE8D1C0E0B4F146
:103EC000807F68D011DCB4F5803F1ED006DCB4F5ED
:103ED000804F71D0B4F5004FD9D115E0B4F5003F53
:103EE00014D0B4F5802FD2D111E0B4F1007F74D09A
:103EF000B4F1806F72D0B4F1884F70D0B4F1904FAC
:103F0000C5D10DE100BF00BF00BF00BF00BF8E489C
:103F100020384068A0438C4A203A5060012903D1E0
:103F200010464068204350600BE1874820384068C5
:103F3000864A1040844A203A5060012904D1104634
:103F4000406840F001005060FBE07F482038406846
:103F500020F030007C4A203A5060012904D11046FC
:103F6000406840F010005060EBE079E025E0E7E0C9
:103F700075482038406820F03000734A203A50607D
:103F8000012904D11046406840F020005060D8E07C
:103F900036E001E044E083E06B482038406820F0E0
:103FA000C000694A203A5060012904D11046406897
:103FB00040F080005060C4E062E063482038406810
:103FC00020F0C000604A203A5060012904D1104618
:103FD000406840F040005060B3E071E080E08FE066
:103FE00059482038406820F44070574A203A5060C1
:103FF000012904D11046406840F480705060A0E070
:1040000051482038406820F440704F4A203A5060B0
:10401000012904D11046406840F40070506090E0DF
:1040200049482038406820F44070474A203A5060A0
:10403000012904D11046406840F44070506080E08F
:1040400041482038406820F440603F4A203A5060A0
:10405000012904D11046406840F40060506070E0CF
:1040600039482038406820F44060374A203A506090
:10407000012904D11046406840F44060506060E07F
:1040800031482038406820F4C0402F4A203A506020
:10409000012904D11046406840F48040506050E04F
:1040A00029482038406820F0E060274A203A5060D4
:1040B000012904D11046406840F08070506040E013
:1040C00021482038406820F0E0601F4A203A5060C4
:1040D000012904D11046406840F00070506030E083
:1040E00019482038406820F0E060174A203A5060B4
:1040F000012904D11046406840F08060506020E003
:1041000011482038C06920F040600F4A203AD06141
:10411000012904D11046C06940F08060D06110E0F0
:1041200009482038C06920F04060074A203AD06131
:10413000012904D11046C06940F00060D06100E060
:1041400000BF00BFF0BD000020000140FEFFFF7F68
:104150000246002093680B400BB1012000E00020D4
:10416000704741617047016170474FF6FF710180F0
:10417000022181700421C17070470000014800686D
:10418000704700007C0300200146632901DD002008
:1041900070470A2091FBF0F300FB13100A2391FBF8
:1041A000F3F300EB0310C2B21046F1E710B510496B
:1041B00010480068FCF717F90446FCF7FBF90E49B4
:1041C00008610E490E480068FCF70DF90446FCF73B
:1041D000F1F9094988810B490B480068FCF703F99C
:1041E0000446FCF7E7F981B20348C18110BD000025
:1041F00000007A44E8010020083F00200000C84287
:10420000E001002000002041DC01002010B5FEF795
:10421000C9FB08F045F908F0ABFA08F0F9F807F027
:10422000D1FF08F0D5F807F00DFF08F067FA08F0A5
:104230000DFA08F0C5F908F07BF908F047F810BD51
:1042400070B50024002517E06006040E01200C491B
:1042500008600A200CF01CFC00200A49C1F8A001EB
:104260000A200CF015FC064888380068012801D1A6
:1042700044F00104681CC5B2082DE5DB204670BD82
:10428000A08121420080214210B50446204600F062
:1042900001F810BD70B505462E4600241AE08020B6
:1042A0002041304018B101200C49086002E0002094
:1042B0000A49086001200949091D08600A200CF01C
:1042C000E7FB00200649C1F8A0010A200CF0E0FB42
:1042D000601CC4B2082CE2DB70BD00009C8121424E
:1042E0000080214270B5044644F080052846FFF75F
:1042F000D1FF70BD10B5002006490860EA20FFF725
:10430000C9FFDC20FFF7C6FF01200349C1F8A40163
:1043100010BD0000A48121420080214210B5002080
:1043200006490860EA20FFF7B5FFE520FFF7B2FF76
:1043300001200349C1F8A40110BD0000A48121425D
:104340000080214270477047704770477047704740
:1043500070477047704770477047704770477047A5
:104360007047704770477047704770477047704795
:104370007047704770477047704770477047704785
:104380007047704770477047704770472DE9F0419C
:10439000B2B005460E46144604F10F0087B24FF046
:1043A000000806B11CB9002032B0BDE8F0817D20C4
:1043B0008DF80000D0208DF80100F8B28DF80200D1
:1043C000380A8DF8030000208DF804008DF80500F0
:1043D0008DF806008DF807001A4800788DF808005F
:1043E00018480088000A8DF8090016480068000C7B
:1043F0008DF80A0013480068000E8DF80B00E8B233
:104400008DF80D00280A8DF80C00224631460DF17A
:104410000E00FBF714FF04F10E0081B268460CF0A9
:104420000BFF04F10E010DF80100481C82B2694631
:10443000002002F061F803480068401C0149086050
:104440000120B1E71003002010B5044620780428AD
:104450001AD0052804D006281DD007282BD122E029
:10446000FDF742F978B10120144988700021144801
:10447000FEF79AFF134A0821322004F0E3FD96214B
:1044800064200DF0D1FC17E001200C498870002059
:1044900002F0B8FE10E0012008498870FCF742FEE7
:1044A000FCF726FF08E00120044988700649074808
:1044B000FEF77AFF00E000BF00BF10BD80030020C0
:1044C000A404002000000020C803002020060020D3
:1044D00010B504462078022808D1002005498870CC
:1044E000054908680021FEF75FFF00E000BF00BF3C
:1044F00010BD0000800300207C04002010B504469D
:104500002078022808D100200549887005490868EC
:104510000021FEF749FF00E000BF00BF10BD000012
:1045200080030020900400200178012905D0032990
:1045300002D0042909D104E000BF0021044A91708F
:1045400004E00021024A917000E000BF00BF704704
:104550008003002010B50446207804281FD006DC14
:1045600001280BD002280DD003282ED112E00F28ED
:1045700019D010281DD0112827D120E0002014497F
:10458000887023E01348FEF7FBFE00211148FEF778
:104590000BFF1BE000211048FEF706FF16E000208D
:1045A00002F030FE12E001200C49087602F0D6FC41
:1045B0000CE002200949087602F0D0FC06E0032056
:1045C0000649087602F0CAFC00E000BF00BF10BD3B
:1045D00080030020CC040020A40400204C740020A0
:1045E00010B50446207806281CD006DC01280BD024
:1045F00002280DD003282AD10FE0072815D008285B
:1046000019D0122823D11CE00020124988701FE025
:1046100000211148FEF7C8FE1AE000210F48FEF7FE
:10462000C3FE15E0FEF73CFA12E001200C49487683
:1046300002F094FC0CE000200949487602F08EFC60
:1046400006E00F2141F2057007F094FC00E000BF86
:1046500000BF10BD80030020B8040020E00400204B
:104660004C74002010B504462078012802D002289E
:1046700009D103E000200549887005E000210448C5
:10468000FEF792FE00E000BF00BF10BD80030020D7
:10469000CC04002010B50446207806281FD006DC84
:1046A000032809D004280AD005283CD10FE00728A8
:1046B0001DD00F2837D122E0FEF7ECF834E00220BD
:1046C0001A49887000211A48FEF76EFE2CE002207D
:1046D0001649887000211748FEF766FE24E0022084
:1046E0001249887000211448FEF75EFE1CE002208B
:1046F0000E49887000211148FEF756FE14E0FCF7C1
:10470000F3FF78B101200949887000210C48FEF7B9
:104710004BFE0C4A0821322004F094FC96216420C0
:104720000DF082FB00E000BF00BF10BD8003002041
:10473000080500201C05002030050020440500204D
:10474000A40400200000002010B5044620780A28A8
:1047500020D006DC022809D008280FD009282BD148
:1047600012E00B281CD00E2826D11FE0002014498F
:10477000887000211348FEF717FE1EE0032141F662
:104780008D0006F037FC18E0062141F68D0006F09A
:1047900031FC12E0092141F68D0006F02BFC0CE003
:1047A0000C2141F68D0006F025FC06E0012141F6C2
:1047B0008D0007F0DFFB00E000BF00BF10BD000070
:1047C00080030020F404002010B5044620780A2855
:1047D00020D006DC022809D008280FD009282BD1C8
:1047E00012E00B281CD00E2826D11FE0002014490F
:1047F000887000211348FEF7D7FD1EE0052141F621
:104800000D1006F0F7FB18E00A2141F60D1006F036
:10481000F1FB12E00F2141F60D1006F0EBFB0CE06E
:10482000142141F60D1006F0E5FB06E0012141F6EA
:104830000D1007F09FFB00E000BF00BF10BD00009F
:1048400080030020F404002010B5044620780A28D4
:1048500020D006DC022809D008280FD009282BD147
:1048600012E00B281CD00E2826D11FE0002014498E
:10487000887000211348FEF797FD1EE01E2141F6C7
:104880008D1006F0B7FB18E03C2141F68D1006F0C4
:10489000B1FB12E05A2141F68D1006F0ABFB0CE0A3
:1048A000782141F68D1006F0A5FB06E0012141F6C6
:1048B0008D1007F05FFB00E000BF00BF10BD0000DF
:1048C00080030020F404002010B504462078052859
:1048D0000AD1FCF709FF30B1012005498870002199
:1048E0000448FEF761FD00E000BF00BF10BD0000FE
:1048F00080030020A404002010B5044620780A2874
:1049000020D006DC022809D008280FD009282BD196
:1049100012E00B281CD00E2826D11FE000201449DD
:10492000887000211348FEF73FFD1EE0062141F686
:104930000D2006F05FFB18E00C2141F60D2006F07B
:1049400059FB12E0122141F60D2006F053FB0CE05A
:10495000172141F60D2006F04DFB06E0012141F63E
:104960000D2007F007FB00E000BF00BF10BD0000F6
:1049700080030020F404002010B5044620780228AB
:1049800005D1044908680021FEF70EFD00E000BFD4
:1049900000BF10BDCC04002010B5044620780128CB
:1049A00004D0022806D012280ED107E000200849C2
:1049B00088700AE000200649887006E00F2141F661
:1049C000053007F0D7FA00E000BF00BF10BD0000BF
:1049D0008003002010B504462078022805D1044940
:1049E00008680021FEF7E0FC00E000BF00BF10BD3A
:1049F000CC04002010B504462078022805D10449D3
:104A000008680021FEF7D0FC00E000BF00BF10BD29
:104A1000CC04002010B504462078052813D1FCF7FB
:104A200063FE78B101200949887000210848FEF72B
:104A3000BBFC084A0821322004F004FB96216420C4
:104A40000DF0F2F900E000BF00BF10BD80030020B0
:104A5000A4040020000000200178012903D10021D6
:104A6000024A917000E000BF00BF70478003002041
:104A700010B504462078012804D0022806D0042866
:104A80000CD107E000200749887008E0012002F0FF
:104A9000B9FB04E0022002F0B5FB00E000BF00BF5C
:104AA00010BD00008003002010B5044620780128C6
:104AB00002D0022808D103E000200549887004E0F4
:104AC000012002F09FFB00E000BF00BF10BD00000E
:104AD0008003002010B504462078042809D005285A
:104AE0000CD101200749887007490848FEF75CFC93
:104AF00005E005490648FEF757FC00E000BF00BF8F
:104B000010BD000080030020F0030020A40400205A
:104B10001804002010B504462078062818D2DFE8D3
:104B200000F01703070B0F1300200B49887010E0EB
:104B30000120FCF7DBFC0CE00120FCF75DFC08E049
:104B40000A20FCF7D3FC04E00A20FCF755FC00E047
:104B500000BF00BF10BD00008003002010B5044658
:104B60002078012804D0022806D003280CD107E0C1
:104B700000200749887008E00120FCF7B7FC04E03A
:104B80000A20FCF7B3FC00E000BF00BF10BD00002E
:104B9000800300200178012902D0022908D103E016
:104BA0000021054A917004E00021034A917000E061
:104BB00000BF00BF7047000080030020017801297A
:104BC00002D0022908D103E00021054A917004E0D7
:104BD0000021034A917000E000BF00BF7047000051
:104BE000800300200178012902D0022908D103E0C6
:104BF0000021054A917004E00021034A917000E011
:104C000000BF00BF70470000800300200178012929
:104C100002D0022908D103E00021054A917004E086
:104C20000021034A917000E000BF00BF7047000000
:104C3000800300200178012902D0022908D103E075
:104C40000021054A917004E00021034A917000E0C0
:104C500000BF00BF704700008003002001780129D9
:104C600002D0022908D103E00021054A917004E036
:104C70000021034A917000E000BF00BF70470000B0
:104C8000800300207047000010B5044620780228F9
:104C900005D1044908680021FEF786FB00E000BF4B
:104CA00000BF10BD1804002010B50446207802286B
:104CB00005D1044908680021FEF776FB00E000BF3B
:104CC00000BF10BD2C04002010B504462078022837
:104CD00008D1002005498870054908680021FEF7C1
:104CE00063FB00E000BF00BF10BD00008003002098
:104CF0004004002010B504462078022808D1002086
:104D000005498870054908680021FEF74DFB00E061
:104D100000BF00BF10BD000080030020540400202D
:104D200010B504462078022808D100200549887073
:104D3000054908680021FEF737FB00E000BF00BF0F
:104D400010BD0000800300206804002070B50446F8
:104D50000D460CB9002070BD172D01D00020FAE7D8
:104D6000172221463046FBF76AFA307C08B1002052
:104D7000F1E7172221460648FBF761FA0448B0F82C
:104D8000110010B90120034908700120E3E7000079
:104D9000A85E0020DB02002002460120704770B5AB
:104DA00004460E460CB1022E01D0002070BD2546EF
:104DB0002878012801DB0020F8E76878012805D170
:104DC00000231A46394606200CF094FD0120EDE739
:104DD00002460120704700002DE9F04780460E464C
:104DE0000027B8F1000F01D00F2E02DA0020BDE835
:104DF000F087454642E028787D2802D16878D0289F
:104E000001D00020F3E7A878E97840EA0124642C77
:104E100001DC0F2C01DA0020E9E7B44201DD0020BB
:104E2000E5E7687B297B40EA0129A4F10F0084B201
:104E3000224605F10E011348FBF701FA002713E0A3
:104E4000114830F8370048450CD10F4800EBC70037
:104E5000406830B10C4800EBC70021464268094861
:104E6000904703E0781CC7B20D2FE9DB00BF301B71
:104E70000F3886B204F10F0008EB00050F2EBADCE4
:104E80000120B4E7635F00201429010870B50546CE
:104E90000C460DB1022C01D0002070BD04480078F2
:104EA00020B100F0ABFE0020014908700120F4E7BA
:104EB000DD02002070B505460E46112E01D00020FF
:104EC00070BD2C7C012C01DB0020F9E700231A4681
:104ED000214607200CF00EFD0120F1E770B50546D4
:104EE0000C46102C01D0002070BD00231A46194634
:104EF00008200CF0FFFC0120F6E700002DE9F0414E
:104F000098B007468846002400250020159016908A
:104F10001790002654216846FBF7AAF91FB9002014
:104F200018B0BDE8F0813878574908700846007815
:104F30000C2808DCA8F101000978C900884202D1D8
:104F40005148007808B90020EAE74246791C4F48EA
:104F5000FBF775F94D48007850B103204C490870B3
:104F600000231A46194605200CF0C4FC0020D7E7A0
:104F7000002407E0454800EBC40040782844C5B24F
:104F8000601CC4B2404800788442F3DB302D0AD064
:104F900003203F49087000231A46194605200CF0EB
:104FA000A9FC0020BCE70020394908703648007889
:104FB0008DF850000026002436E0002510E033482C
:104FC00000EBC4004088314901EBC50149888842A3
:104FD00004D115A8405D15A9085503E0681CC5B2A9
:104FE000A542ECDB00BFA5421CD115A80655701CDC
:104FF000C6B2264800EBC40080884FF47A7148435B
:10500000711E04AA42F82100204800EBC400408829
:105010004FF47A714843711E4DF82100042E01DDD2
:1050200000207DE7601CC4B2174800788442C4DBCE
:105030000025002411E015AB1A5D144B03EBC403EB
:10504000597808AB5819FBF70CF9104800EBC4006D
:1050500040782844C5B2601CC4B20B480078844232
:10506000E9DB512269460B48FBF7E9F85123094A6D
:10507000002108460BF0AAFF00231A461946052016
:105080000CF038FC01204BE7DC020020485E0020D9
:10509000D80200203975002070B505460E460DB1C6
:1050A000212E01D0002070BD212229460A48FBF79D
:1050B000C6F8094804780020C4EBC401074A02F886
:1050C0002100C4EBC40102EB8101087600212046D7
:1050D00009F0FAFC0120E6E7FD5D0020FC5000200D
:1050E0002DE9F04704460D4603270CB1092D02D0E7
:1050F0000020BDE8F0872A4621461E48FBF79FF8AE
:105100001C48007808B90020F3E701210020FCF7D3
:1051100087FA19480078042801D006F03FFF1549A6
:105120000879FDF7CDFB80461249C878FDF7C8FB2A
:10513000814610498878FDF7C3FB00F5FA664246C0
:10514000494630460CF014FE0A49C879FDF7B8FB11
:10515000064608498879FDF7B3FB8046054948793A
:10516000FDF7AEFB8146324641460CF025FE01209C
:10517000BFE70000B55D0020083F002070B5054680
:105180000E462C460DB13F2E01D0002070BD0020F0
:10519000104908700876A079A8B93F2221460E4828
:1051A000FBF74DF800210846FCF78EFA00231A465B
:1051B000194618460CF09EFB0023042219460120D4
:1051C0000CF096FD03E0A079012800D100BF01207A
:1051D000DCE70000FC500020BE5D002070B50446F6
:1051E0000E4625460CB1312E01D0002070BD287C22
:1051F00060B900231A46194603200CF07BFB0023FC
:105200000422194602200CF073FD06E0287C0128D8
:1052100001D100BF01E00020E8E70120E6E700003F
:105220007CB505460E460DB900207CBD942E01D0FC
:105230000020FAE7942229462448FBF700F80021D1
:10524000224880F8301080F8411080F8511080F822
:10525000911064211E48FBF70BF832211C48643082
:10526000FBF706F819485230184991F83110A0F1AF
:10527000410318A2CDE90010642115480AF00CF88A
:105280000446601C28B9214616A009F0F5FF00204D
:10529000CBE70E484230A0F110031AA2642100901F
:1052A0000B48643009F0F8FF0446601C28B9214619
:1052B0000CA009F0E1FF0020B7E70120FCF7FCF9A2
:1052C00001201249087000BFAFE70000BF5E002058
:1052D00044510020687474703A2F2F25733A256466
:1052E0002F257300736E7072696E7466206572721A
:1052F0006F722C20746865206C656E2069732025A0
:105300006400000025733A2573000000DD020020D0
:105310002DE9F0410546BE4EBE4C15B10020BDE85A
:10532000F081BD48007804280AD1392084F848006B
:105330003921492001554A2001554B2001555CE097
:10534000B54890F8060248B1B34890F806020C2818
:1053500004D0B14890F806020D280AD1312084F813
:1053600048003021492001554A2001554B20015564
:1053700043E0A94890F806020E2804D0A64890F809
:1053800006020F280BD1312084F848003021492033
:1053900001554A20015531214B2001552DE09E48F1
:1053A00090F8060206280BD1332084F848003021FB
:1053B000492001554A20015533214B2001551CE05D
:1053C000954890F806020B280BD1312084F848004C
:1053D0003021492001554A20015544214B200155D7
:1053E0000BE0332084F84800302149200155332157
:1053F0004A20015542214B200155102231462046BA
:10540000FAF71DFF0220207465742022834904F1FD
:105410001200FAF714FF202084F832007E4991F838
:105420003E106439C8B2FEF7AFFE332108557A4901
:1054300091F83D00FEF7A8FE34210855764991F811
:105440003C00FEF7A1FE35210855734991F83A005A
:10545000FEF79AFE362108556F4991F83900FEF79C
:1054600093FE372108556C4991F83800FEF78CFE01
:10547000382108556848D0F84A10D0F84600081A74
:10548000C4F84200202084F83A00634991F845109E
:105490006439C8B2FEF778FE3B2108555E4991F8A1
:1054A0004400FEF771FE3C2108555B4991F843002A
:1054B000FEF76AFE3D210855574991F84100FEF775
:1054C00063FE3E210855544991F84000FEF75CFE0A
:1054D0003F210855504991F83F00FEF755FE402105
:1054E00008554D48D0F802026421B0FBF1F04C4958
:1054F000C1F81A004648407E01280AD14648C089B2
:10550000C8834548C0890A2190FBF1F044490884CA
:1055100013E0444948684449FAF765FF0746FBF73A
:1055200049F83F49C8833F4908683F49FAF75BFF9C
:105530000746FBF73FF83A4908840020384981F8CC
:1055400026003548D0F802026421B0FBF1F034495E
:10555000C1F83D002E48407E012808D12E48006940
:105560000A21B0FBF1F02E49C1F845000AE02D49AF
:10557000C8682E49FAF737FF0746FBF71BF828499A
:10558000C1F845002448406B0A21B0FBF1F0E0640B
:105590002148D0F802026421B0FBF1F0A0651E485A
:1055A000D0F86210D0F8660001441B48D0F86A00B9
:1055B00001441948D0F86E00084442F21071B0FB63
:1055C000F1F0A06615481538C07984F86D00012007
:1055D00084F893000121284609F076FA144803F074
:1055E0008DFDC5EBC501134A02EB81014860C5EB97
:1055F000C500114601EB80008068C5EBC50102EBD8
:105600008101486094220349CA20FEF7BFFE86E666
:105610004C7400206F5C0020083F0020D35D002008
:10562000EE5B0020BC770020000020410000C84253
:1056300000000020FC5000202DE9F04105460E46F8
:1056400017462C460DB1942E02D20020BDE8F08101
:105650002FB1942229467220FEF798FEF6E794F8BF
:105660004800392816D14920005D392812D14A2036
:10567000005D39280ED14B20005D39280AD1312038
:1056800084F848003021492001554A200155312134
:105690004B20015594222946CA20FEF777FED5E714
:1056A00070B5B2B00546C8216846FAF7E1FD534E21
:1056B00015B1002032B070BD0020FBF7A1FD01281C
:1056C00001D00020F6E74E4890F83D1090F83E00DB
:1056D00041EA00214A4890F83F0041EA0041484829
:1056E00090F8400041EA006455214648FAF7C0FDB1
:1056F000102231464348FAF7A2FD42480574C0F82B
:1057000051404148B4FBF0F03030C1B23D48C17562
:105710003D48B4FBF0F100FB11443C48B4FBF0F011
:105720003030C1B2374801763848B4FBF0F100FBA5
:1057300011443748B4FBF0F03030C1B23148417603
:105740003348B4FBF0F100FB11443248B4FBF0F0F5
:105750003030C1B22B4881762E48B4FBF0F100FB0B
:1057600011442D48B4FBF0F03030C1B22548C17669
:105770002948B4FBF0F100FB114442F21070B4FB75
:10578000F0F03030C1B21F48017742F21070B4FB24
:10579000F0F100FB11444FF47A70B4FBF0F03030BC
:1057A000C1B2184841774FF47A70B4FBF0F100FBB6
:1057B00011446420B4FBF0F03030C1B2114881775D
:1057C0006420B4FBF0F100FB11440A20B4FBF0F0BC
:1057D0003030C1B20B48C1770A20B4FBF0F100FBB6
:1057E000114404F13000C1B2064880F8201055225F
:1057F00001462220FEF7CAFD5CE700004C74002041
:10580000706000204F5D002000CA9A3B00E1F50562
:105810008096980040420F00A086010070B5594C58
:105820000020FBF7EDFC012801D0002070BD812194
:105830005548FAF71DFD102221465348FAF7FFFCA0
:1058400001205149087400204874022088744F4890
:105850000078042802D10220C87418E04B48007870
:10586000062802D14849C87411E048480078052844
:1058700003D107204449C87409E04448007801284E
:1058800002D14149C87402E000203F49C8743E4833
:10589000C07C02286FD13D48D0F802026421B0FBE1
:1058A000F1F03949C1F81A003648407E012814D178
:1058B000364800690A21B0FBF1F03349C1F84500D0
:1058C0003248C089A1F82700304880890A2190FB1E
:1058D000F1F02D49A1F82D001EE02D49C8682D4991
:1058E000FAF781FD0546FAF765FE2749C1F845003C
:1058F000274948682849FAF776FD0546FAF75AFE1F
:105900002149C883224908682349FAF76CFD0546F6
:10591000FAF750FE1C49088400201B4981F8260034
:105920001A48D0F802026421B0FBF1F01649C1F820
:105930003D001648406B0A21B0FBF1F01249C1F856
:1059400039000846C08B098C48430A2190FBF1F0CE
:105950000D49C1F87D00202210490B485030FAF75C
:105960006EFC00200CF0C0FD0849D1F84610401A2A
:105970000549C1F83500812203496820FEF706FD7C
:1059800054E700004C740020EE5B0020083F00202C
:10599000BC7700200000C84200002041D35D0020F9
:1059A00010B5002453E02C4800EB0410806800B9C7
:1059B0004BE02A4803F0A2FB274901EB04110860E1
:1059C000254800EB04100068234901EB04114968E5
:1059D000884212D3204800EB041000681E4901EBF6
:1059E00004114968401A1C4901EB04118968884276
:1059F00001D3012015E0002013E0174800EB04104C
:105A00000068154901EB04114968C1F1FF310844F0
:105A1000114901EB04118968884201D3012000E09B
:105A2000002088B10C4800EB041000680A4901EB23
:105A300004114860084800EB0410C06820B1064912
:105A400001EB0411C868804700BF601CC4B2032C7E
:105A5000A9DB012010BD0000E002002000000020B2
:105A600010B50E4C0020FBF7CBFB012801D0002025
:105A700010BD102221460A48FAF7E1FB09480088C8
:105A80000749088207480088401C064908801222FE
:105A900003496620FEF77AFCEAE700004C74002018
:105AA000DC5B00201403002010B59AB01048007889
:105AB00018B10F480078042802DD00201AB010BD8C
:105AC0000B4800788DF8040060220A490DF10500AA
:105AD000FAF7B5FB06480078012101EBC000C4B21B
