:020000040800F2
:10000000307E002089010008318400083566000830
:10001000396E00085B2F000845F40008000000005E
:100020000000000000000000000000009B0100082C
:10003000CD33000800000000B30B0008B9E500084C
:10004000A3010008A3010008A3010008A301000800
:10005000A3010008A3010008A3010008A3010008F0
:10006000A3010008A3010008A3010008A3010008E0
:10007000A3010008A3010008A3010008A3010008D0
:10008000A3010008A3010008A3010008A3010008C0
:10009000A3010008A3010008A3010008A3010008B0
:1000A000A3010008A3010008A3010008A3010008A0
:1000B000A301000849E80008C9E80008A3010008F6
:1000C000A3010008A3010008A3010008A301000880
:1000D000A301000849EE0008DDEE000879EF0008F2
:1000E000A3010008A3010008A3010008000000000C
:1000F0000000000000000000000000000000000000
:1001000000000000A3010008A30100080000000097
:1001100000000000000000000000000000000000DF
:10012000A3010008A3010008A3010008A30100081F
:1001300000000000000000000000000000000000BF
:10014000000000000000000000000000A301000803
:100150000000000000000000A3010008A301000847
:10016000A30100080000000000000000A301000837
:10017000DFF810D000F064FC00480047E9210108D6
:10018000AFF30080307E00200648804706480047D5
:10019000FEE7FEE7FEE7FEE7FEE7FEE7FEE7FEE737
:1001A000FEE7FEE7F9E500087101000872B6704746
:1001B00062B67047EFF3108072B6704780F3108814
:1001C000704730BF704720BF7047B0FA80F070476B
:1001D00090FAA0F0B0FA80F0704790FAA0F0704763
:1001E0002DE9F05F0546002092469B46884606466C
:1001F000814640241BE0284641464746224600F0FF
:1002000030FB53465A46C01A914110D31146184646
:10021000224600F017FB2D1A67EB01084F462246D5
:100220000120002100F00EFB17EB00094E41201EBB
:10023000A4F10104DFDC484631462A464346BDE8C6
:10024000F09F40EA01039B0703D009E008C9121F91
:1002500008C0042AFAD203E011F8013B00F8013B80
:10026000521EF9D27047D2B201E000F8012B491EAC
:10027000FBD270470022F6E710B513460A46044643
:100280001946FFF7F0FF204610BD30B505462A4657
:100290000B4612F8010B13F8014B08B1A042F8D03D
:1002A0001CB1002802D06D1CF1E7284630BD421C6D
:1002B00010F8011B0029FBD1801A704730B50546A4
:1002C0000020034600E05B1C934205D2EC5CC85C56
:1002D000201A01D1002CF6D130BD000070B50F4DB1
:1002E00000B92868002412E00A4602E09E4203D0CA
:1002F000521C1378002BF9D1DAB2224305D02BB16E
:1003000024B1002100F8011B04E00446401C0678DB
:10031000002EE9D12860204670BD00004007002073
:1003200070B506460FF0A2FC046805460A220021BB
:10033000304600F0B8FA2C6070BDF0B480EA0102DB
:10034000D40F4200B2EB410F02D2024608461146DA
:100350004A0042D0C30DDDB2C1F3C752AD1A202D01
:1003600035DAC1F3160141F4000204B15242C5F17D
:10037000200602FA06F12A411044B3EBD05F23D0E5
:10038000C4B1012DA0EBC35009DCF0BC4FF000421A
:1003900002EAC352DBB200F5000000F0C5BA40002B
:1003A00000F1807000EBC350A0F1807040EAD17082
:1003B000490009E0490841EAC071A0EBC35000F5CB
:1003C0000000400800EBC350F0BC00F0A4BA61424A
:1003D000012202EB4101001BF6E7F0BC704781F0FF
:1003E0000041AAE780F00040A7E780EA010210B5CB
:1003F00002F00043400022D04A001FD0010E01EB62
:100400001261C0F35600C2F3560240F4000042F4F9
:100410000002A0FB022000047F39140400D0401C1D
:1004200050EA124001D44000491EC2B20C0604EB4F
:10043000D010401C4008802A02D003E0002010BDEC
:1004400020F00100002900DA0020184310BD30B46C
:1004500080EA010202F0004530F0004221F0004045
:1004600013D090B1C30DD40DC2F31601C0F3160022
:10047000E41A41F4000140F400027D34914201D3BA
:10048000641C00E04900002C02DA30BC00207047F8
:100490004FF400000023914201D3891A034340081E
:1004A0004FEA4101F7D151B1914202D14FF00041E1
:1004B00005E002D24FF0010101E06FF0010103EB12
:1004C000C450284430BC00F026BA2DE9FE4F8046C7
:1004D00081EA0300C00F0C46009021F0004123F098
:1004E0000045B8EB0200A94105D24046214690469E
:1004F0001C460B46024623F00040104347D0270D10
:10050000C7F30A00C3F30A510290401A0190402831
:100510006BDAC3F3130040F4801B0098924620B1BD
:100520000023D2EB030A63EB0B0B01985946C0F191
:100530004002504600F086F906460D4650465946A0
:10054000019A00F09EF910EB08006141002487EA4F
:10055000115284EAE7731A4340D0009A62B3019AB9
:10056000012A4FEA075215DC001B61EB02014FF034
:10057000004202EA0752CDE90042001C41F5801119
:1005800032462B4600F00DFA03B0BDE8F08F40462E
:100590002146F9E7001B61EB0201001C41F58013C5
:1005A00000185B412018A2F5001747EB030140EA51
:1005B000D570B6196D4111E06D084FEA360645EA6F
:1005C000C0754FEA0752001B61EB0201001C41F5A8
:1005D000801149084FEA30000019514132462B463C
:1005E00003B0BDE8F04F00F0CDB900980122400003
:1005F0000023D0EB020263EBE073009821464FEA40
:10060000E074B8EB000061EB0401E9E783F000431C
:100610005BE781F0004158E72DE9FE4F81EA0304D2
:1006200004F0004421F0004100944FF0000B23F04F
:10063000004350EA01045ED052EA03045BD0C3F3E6
:100640000A54C1F30A552C44A4F2F3340194A0FBDC
:100650000254C1F3130141F48011C3F3130343F4B3
:10066000801301FB024400FB034E840A970A44EA0C
:10067000815447EA8357A4FB076802958D0A05FB5E
:1006800007854FEA932C04FB0C542705029D4FEA83
:10069000065847EA1637B5EB08056EEB070C870ED0
:1006A000920E47EA811742EA8312A7FB0201B6EBDA
:1006B0000B0164EB00042B0D43EA0C335E1844EB92
:1006C0001C50DA465146E7FB0201C5F313044FEA1A
:1006D0000B3343EA14534FEA0432019C43EA060306
:1006E000A4F10C040294009CCDE900B400F059F987
:1006F00003B0BDE8F08F00200146F9E79623002201
:10070000114600F011B930B4044696230800214682
:1007100004D0B62330BC002200F006B920460021E8
:10072000F8E70EB540F2334102910021CDE9001106
:100730000A460B4600F035F903B000BD20F000403A
:10074000C10DC0F3160040F400007F2901DA00203B
:100750007047962903DCC1F19601C840704796396D
:1007600088407047C1F30A5210B5C1F3130140F23B
:10077000FF3341F480119A4201DA002010BD40F2AB
:1007800033439A42A2F2334203DC524200F069F84A
:1007900010BD904010BD00F0004230F000400AD083
:1007A000C10D01F56071C0F3160042EA0151C208A3
:1007B00040071143704700200146704730B5041EC2
:1007C00071F1000404DB4FF00044404264EB01018E
:1007D000141E73F1000405DB1C464FF00043524227
:1007E00063EB04038B4208BF824230BD30B5041E68
:1007F00071F1000404DB4FF00044404264EB01015E
:10080000141E73F1000405DB1C464FF000435242F6
:1008100063EB0403994208BF904230BD002801DB1E
:10082000C0F10040002901DBC1F100418142704765
:10083000002801DBC0F10040002901DBC1F10041CB
:1008400088427047202A04DB203A00FA02F1002097
:1008500070479140C2F1200320FA03F319439040FE
:100860007047202A04DB203A21FA02F00021704769
:1008700021FA02F3D040C2F1200291400843194608
:100880007047202A06DBCB17203A41FA02F043EAF0
:10089000E07306E041FA02F3D040C2F12002914039
:1008A0000843194670472DE9F04791460F468046A8
:1008B0000446002614F8015B2DB100F0D3F800685F
:1008C000405DC007F6D12B2D02D02D2D18D0641E0F
:1008D0004A463946204600F0C9F827B13968A14296
:1008E00001D1C7F8008071054FF002040BD54042DA
:1008F000002803DD0FF0BAF90460A007BDE8F08717
:1009000046F48066E4E70028F8DA0FF0AFF90460F7
:100910006FF00040F2E70029A8BF7047401C490073
:1009200008BF20F00100704710B4B0FA80FC00FA54
:100930000CF050EA010404BF10BC704749B1CCF17F
:10094000200421FA04F411FA0CF118BF012121430B
:100950000843A3EB0C01CB1D4FEA00614FEA1020C6
:1009600042BF002010BC704700EBC3501044002968
:10097000A4BF10BC7047401C490008BF20F0010014
:1009800010BC704710B5141E73F1000408DA401C47
:1009900041F1000192185B411A4301D120F001009E
:1009A00010BD2DE9F04D92469B4611B1B1FA81F28E
:1009B00002E0B0FA80F220329046FFF743FF04468F
:1009C0000F4640EA0A0041EA0B0153465A460843E3
:1009D00013D0114653EA010019D0C8F14002504625
:1009E000FFF73FFF05460E46504659464246FFF781
:1009F00029FF084305D0012004E020463946BDE820
:100A0000F08D0020054346EAE0762C4337430A98F0
:100A10006305E40AA0EB08000022FD0A44EA4754FB
:100A20000A3002D500200146E9E7010510196941A5
:100A3000DDE9084500196941BDE8F04DA2E7000075
:100A4000064C074D06E0E06840F0010394E807001B
:100A500098471034AC42F6D3FFF78EFB784201087A
:100A60009842010800487047DC3F01082DE9F05F1B
:100A700082460078002715468B460AF10104B946E4
:100A8000302801D09DB113E014F8010B012778281C
:100A900003D0582801D045B10AE00DB1102D07D17F
:100AA0000027102514F8010B02E0082500E00A25B4
:100AB0000026B0460EE005FB080005FB06F1012705
:100AC00001EB10461FFA80F8B6F5803F00D3B94617
:100AD00014F8010B294600F018F80028EBDABBF1F6
:100AE000000F05D00FB1641E00E05446CBF8004063
:100AF000B9F1000F06D00FF0B9F802210160C81E4D
:100B0000BDE8F09F48EA0640FAE73A2800D23038BC
:100B100020F02002412A01D3A2F13700884201D3FC
:100B20004FF0FF30704770B58C1810F8015B15F06E
:100B3000070301D110F8013B2A1106D110F8012B4F
:100B400003E010F8016B01F8016B5B1EF9D12B0774
:100B500005D40023521E0DD401F8013BFAE710F82A
:100B6000013BCB1A921C03E013F8015B01F8015B17
:100B7000521EF9D5A142D8D3002070BD1D484FF0B8
:100B8000FF010170002080F309881B48016881F390
:100B900008881A484FF08051016062B6FEE7174896
:100BA0004FF080510160704714484FF08051016050
:100BB000704772B6EFF3098028B1203880E8F00F53
:100BC0000F490968086000B50E4880475DF804EBDE
:100BD0000D480E490A78027009480D490A680260FA
:100BE000106890E8F00F203080F309884EF0F40E82
:100BF00062B6704722ED00E0A400002004ED00E0A2
:100C00006C010020419A0008EA000020EB0000205F
:100C10007001002021B1826842F00102826003E08D
:100C2000826822F001028260704721B1826842F43A
:100C30008072826003E0826822F480728260704772
:100C4000014600208A6802F004020AB1012000E097
:100C500000207047014600208A6802F008020AB1AD
:100C6000012000E00020704730B50246002000233C
:100C700050680F4C20400D790C6844EA052420434D
:100C8000506090680B4C2040D1E902542C434D79C0
:100C900044EA450420439060D06A20F470000C7C44
:100CA000641EE4B2234340EA0350D06230BD00002A
:100CB000FFFEF0FFFDF7F1FDF0B504460D46002004
:100CC0000021092D11DDE068A5F10A0606EB4607B3
:100CD000072606FA07F18843A5F10A0606EB460641
:100CE00003FA06F10843E0600CE0206905EB4507D4
:100CF000072606FA07F1884305EB450603FA06F1D5
:100D000008432061072A0FDA606B561E06EB860740
:100D10001F2606FA07F18843561E06EB860605FADB
:100D200006F10843606322E00D2A0FDA206BD61F1C
:100D300006EB86071F2606FA07F18843D61F06EB47
:100D4000860605FA06F10843206310E0E06AA2F186
:100D50000D0606EB86071F2606FA07F18843A2F167
:100D60000D0606EB860605FA06F10843E062F0BDC3
:100D7000816841F008018160704721B1826842F4C6
:100D8000A002826003E0826822F4A00282607047C1
:100D9000816841F0040181607047002101600171A8
:100DA00041718160C1600121017470472DE9F047F4
:100DB00090B00746894690461E4614210BA8FFF7BF
:100DC00059FA142106A8FFF755FA7C218448FFF749
:100DD00051FA8448007E012804D183480068804984
:100DE000086108E08148D0F80A007D4908617F4821
:100DF000D0F80E0088677B48007E012805D10221CB
:100E000077486C3002F034FB19E07948007801280B
:100E100005D1032172486C3002F02AFB0FE07548BF
:100E200090F817020B2805D103216D486C3002F0B1
:100E30001FFB04E002216A486C3002F019FB69488C
:100E4000007E01280FD1002000F070F905461DB981
:100E5000002010B0BDE8F087052205F10B016048C5
:100E60001C300DF033FB6348D0F845005C49486105
:100E700039465B48303002F0A3FB5A48007E012817
:100E800019D100200EF04AFE012828D1574890F8C9
:100E900036000106554890F8370041EA00415348B2
:100EA00090F8380041EA0020504991F83910084381
:100EB0004B49086013E04D4890F8360001064B4856
:100EC00090F8370041EA0041484890F8380041EA7C
:100ED0000020464991F839100843414908604946C5
:100EE0003F48623002F0C4FA41463D48001D02F01E
:100EF000BFFA4048D0F81302394988613D4890F85C
:100F0000491090F84A2090F84B3090F84D00CDE908
:100F1000023204910190374890F84E000090354815
:100F200090F84F00A0F1640333A214210BA80EF037
:100F300083FE0446601C28B9214637A00EF06CFEE3
:100F4000002086E72B4890F8501090F8512090F838
:100F5000523090F85400CDE90232049101902548B6
:100F600090F855000090234890F85600A0F16403D3
:100F700021A2142106A80EF05FFE0446601C28B9C9
:100F8000214625A00EF048FE002062E714220BA99E
:100F900013483A30FFF755F9142206A910484E308D
:100FA000FFF74FF920210E4880F8611080F84D10AE
:100FB0004FF47A70B6FBF0F100FB116010B94FF4FA
:100FC0007A7005E04FF47A70B6FBF0F100FB116027
:100FD0008246034A02210BF015FF012039E7000089
:100FE0008C730020247400203C0300202460002027
:100FF000646000204C4500203230253032642D25BD
:101000003032642D253032642D253032642D253068
:1010100032642D2530326400736E7072696E7466AE
:10102000206572726F722C20746865206C656E206A
:10103000697320256400000010B500200A498880EB
:10104000C880088148817C2107480C30FFF712F9DD
:101050007C2105488830FFF70DF97C210348FFF714
:1010600009F9012010BD0000987000209C7100203B
:101070002DE9FE4F04460E4603F090FB0746002084
:101080000290019014B1062E00DB17B90020BDE8D4
:10109000FE8FA57894F803806078217840EA0129D2
:1010A00045F6A520814534D1E81CB04201D000208E
:1010B000EDE7B8F1830F2CD16079217940EA012A5C
:1010C000A07940064FEA106BE01D0090BAF5805FF2
:1010D00019D1A81C215C681C205C41EA0020019009
:1010E000A81C205C00F07F00029039799DF8080070
:1010F00061F3DF1000F580500199884208D102A801
:1011000002F030F904E05A465046009902F036F9F0
:1011100000BF0120BBE7000001460A2901DD0020D5
:1011200070470148405CFBE71360002010B504469F
:10113000204600F017F810BD0146012901DB002010
:101140007047C1EB011000EB8000024A02EB800007
:10115000401CF5E749740020014800787047000002
:101160008003002010B504460CB1002010BD1022F1
:1011700002490348FFF765F80148F7E7C15C002022
:10118000065F0020014609B1002070470148007841
:10119000FBE700004403002001460A2901DD00208E
:1011A00070470148405CFBE71160002001460129BF
:1011B00001DB00207047C1EBC100024A12F8200099
:1011C000F8E700002C5100200148407970470000EA
:1011D0001060002001480078704700001060002077
:1011E00001460648007E884201DC002070476520E9
:1011F0004843034A02EB8000F8E70000B6020020F3
:101200002852002010B53D484089401C3B49488188
:101210004FF6FF700881084600888880084680885D
:10122000401EC880084680884FF47A7190FBF1F226
:1012300001FB120008B9084607E0304880884FF4E7
:101240007A7190FBF1F201FB120084B22B4A0C324E
:10125000012120460BF0D6FD7C2228490C3101F1FA
:10126000F800FEF7EEFF2548C088002819DD234866
:10127000C0884FF47A7190FBF1F201FB120008B9BB
:10128000084607E01D48C0884FF47A7190FBF1F2E0
:1012900001FB120084B2194A8832012120460BF06A
:1012A000B1FD1648808820B90021154802F08CFB5A
:1012B00022E01248808801280FD112490F480C30D3
:1012C00002F078FA0D4841894FF4FC500AF02EFCE8
:1012D00000210C4802F078FB0EE00B4907480C3067
:1012E00002F068FA054841894FF4F8500AF01EFCF4
:1012F0000021054802F068FB012010BD9870002015
:1013000088060020740600206006002070B50446A0
:1013100040E038484089401C36494881084680886A
:1013200008810846C08888800846C088401EC8805A
:101330007C220C3101F1F800FEF783FF7C222D495D
:101340008831A1F17C00FEF77CFF2A48C088002884
:101350001FDD28484089B0F57A7F1ADA2548C08811
:101360004FF47A7190FBF1F201FB120008B90846C4
:1013700007E02048C0884FF47A7190FBF1F201FB3E
:10138000120085B21B4A8832012128460BF03AFD33
:1013900000E004E0201EA4F10101CCB2B9D100BFED
:1013A0001448C08820B113484089B0F57A7F0FDB1C
:1013B000114910480C3002F0FDF90E4841894FF4F4
:1013C000FC500AF0B3FB00210B4802F0FDFA0EE0DE
:1013D0000A4908480C3002F0EDF9064841894FF4FB
:1013E000F8500AF0A3FB0021044802F0EDFA0120B6
:1013F00070BD000098700020740600206006002078
:1014000070B5044652E045484089401E4349488132
:1014100008468088C8800846008988807C220C3174
:1014200001F17C00FEF70DFF7C223D49A1F1F8009F
:10143000FEF707FF39480089002823DD3748008977
:101440003649096888421DD834480089401C334910
:101450000881084600894FF47A7190FBF1F201FB94
:10146000120008B9084607E02C4800894FF47A7149
:1014700090FBF1F201FB120085B2294A01212846B6
:101480000BF0C0FC2548008928B124480089234975
:10149000096888420AD923480078401C214908700D
:1014A00000201E4908810120488104E0201EA4F18B
:1014B0000101CCB2A7D100BF1A48007802280DD193
:1014C0001648008950B90020174988700021174834
:1014D00002F07AFA0020134908701CE00F48808857
:1014E0004FF6FF71884207D100200F498870002114
:1014F0000E4802F069FA0EE00D4908480C3002F07F
:1015000059F9064841894FF4F8500AF00FFB0021C1
:10151000074802F059FA012070BD000098700020C1
:101520009C710020F8030020F403002044040020F4
:101530006006002002460A2A01DD002070470248AA
:10154000815400BFFAE700001360002010B50020AE
:10155000FFF7F2FD044694F8EB0018B901200449A6
:10156000087002E0002002490870012010BD000050
:10157000440300200246032900DA0AB10020704724
:10158000014801700120FAE74403002001460B489E
:10159000007E884201DC0020704721B90020084A03
:1015A0001070084A107000220548401C4254801CEC
:1015B00042540A3042540120EEE70000B6020020F7
:1015C000106000208003002010B5012800DB10BD52
:1015D000C0EBC002054B03F822100022C0EBC00391
:1015E000024C04EB83031A7600BFF0E72C51002075
:1015F00010B5FFF7ABFF10BD014602484171012055
:1016000070470000106000200246022901DA012A1A
:1016100001DB00207047024881540120FAE70000F6
:10162000B402002010B5134808F0AAFA1249086065
:101630000846006811490968401A40F6B8318842E6
:101640000FD20D4800680D4908600D480078401C15
:10165000C0B20B49087003280ADB00200870012083
:1016600010BD05480068054908600020044908705D
:101670000020F5E700000020E8030020EC03002034
:10168000E403002070B505460C4616460CB9002050
:1016900070BD0321064881766178207841EA0021F7
:1016A0000348C1610021034802F08EF90120EFE7F1
:1016B0004C4500203004002038B50446614A08211A
:1016C0004FF4FA6008F000FA5F48007E012800D06D
:1016D00038BD6A465DA1604807F044F8BDF80000D7
:1016E00000B1F5E74FF480715C4803F04CF8554ABF
:1016F0000821642008F0E8F94FF40061574803F02E
:1017000040F84FF48051554803F03BF84D4A08210A
:10171000FA2008F0D9F94FF48071504803F033F8FB
:10172000484A0821642008F0CFF94FF400614B4883
:1017300003F027F84FF48051484803F022F8414A5B
:101740000821FA2008F0C0F97BE0FFF73DFD98BBC7
:1017500001F0C8FC3B4808F013FA4149086000203A
:10176000FFF7DAFC012828D03E480078042824D06E
:101770003B4800683C49096888420BD338480068F8
:1017800039490968401A3949884201D301200EE0DD
:1017900000200CE034480068C0F1FF30304909688F
:1017A00008443249884201D3012000E0002000288B
:1017B00041D00CF06FFF3EE004E0294800682A4960
:1017C000086038E00020FFF7E7FC012833D1284803
:1017D00005F0EAFCC0B100202649087004F0ECFED8
:1017E0000020FFF709FF0CF0D3FA164A08214FF446
:1017F0007A7008F069F9134A08214FF4FA6008F08A
:1018000063F905F0E7F916E01A480078401CC0B209
:101810001849087003280EDD002008700CF03AFF0C
:101820000020FFF7E9FE0CF0B3FA064A08214FF456
:101830007A7008F049F9034A08214FF47A7008F0E9
:1018400043F982E7000000202474002073656E6471
:101850006D75746578000000485100200008014053
:10186000080300204C4500200C030020C02709007D
:10187000745100200703002070B588B0064600258B
:10188000182101A8FEF7F6FC9A4A08214FF4FA60E5
:1018900008F01AF90DF03AF907AB142296A199480D
:1018A00007F086F9BDF81C0028B193A196A00EF0B0
:1018B000B3F908B070BD9948007E012800D0F8E760
:1018C00000240DE08B4808F05BF9954941F82400AD
:1018D000084650F82400934941F82400601CC4B223
:1018E0009148007EA042EDDC02E1002407E081483F
:1018F00008F046F98A4941F82400601CC4B28A48BD
:10190000007EA042F3DC8848007E00B900BF4FF49F
:101910007A704FF4C373854A01A90090794810F09A
:101920004DFD00287FD101980A287CD17E48007E99
:10193000012823D10020FFF72FFC012819D1FFF740
:1019400043FC012804D1794805990BF0F3FF09E025
:10195000059881B275480EF0EBF818B17048006830
:10196000704908604FF4C3717048FEF783FC00BFF4
:1019700059E06E4805990BF0DDFF54E06B4805997E
:101980000BF0D8FF00244AE065206043684901EB72
:10199000800090F8900101283FD10021652060432C
:1019A000634A02EB800080F8901104BB6148006834
:1019B000401C60490860652262435D4B03EB820274
:1019C000B2F88E116522624303EB820202F1080035
:1019D0000EF0AEF8E8B1524850F82400514941F8F1
:1019E000240055480068401C5349086011E06520F8
:1019F00060434F4901EB8000007A682809D101213A
:101A00000846FFF797FD464850F82400454941F83D
:101A100024000020494941F82400601CC4B2424817
:101A2000007EA042B0DC00245EE02046FFF7B4FB5D
:101A3000012851D13C48007E012812DD3F4850F872
:101A40002400401C3D4941F824000D2809D3002002
:101A500041F824002CB900231A4619461E2010F024
:101A6000EDFD2F4850F824002E4951F824108842EB
:101A70000ED32B4850F824002A4951F82410401A5C
:101A80004EF66021884201D3012011E000200FE0D2
:101A9000234850F82400234951F82410C1F1FF31A4
:101AA00008444EF66021884201D3012000E0002066
:101AB000C0B1FFF789FBA8B9194850F824001949AB
:101AC00041F824002046FFF761FD5CB91C4800681E
:101AD000401C1B49086005E0114850F824001149DA
:101AE00041F82400601CC4B20F48007EA0429CDC78
:101AF000FBE600000000002034472073656E642080
:101B00006D710000505500204F5351437265617450
:101B100065202573204661696C0000002474002054
:101B20002C03002024030020B60200208055002052
:101B30002852002014030020100300201C03002062
:101B40001803002070B588B00646182101A8FEF7DA
:101B500091FB0020FFF7F0FA05460024AE4A082169
:101B60004FF4FA6007F0B0FFAC48007E012801D0C6
:101B700008B070BD07AB1422A9A1AC4807F018F853
:101B8000BDF81C0020B1A6A1A9A00EF045F8EFE712
:101B900040E14FF47A700A23AA4A01A90090A348B1
:101BA00010F00CFC00286FD1FFF70EFB012806D1C6
:101BB000994A08214FF47A7007F086FF2AE10398CA
:101BC000202870D2DFE800F01095952695615258D4
:101BD0006C7073787D829583843695666957959588
:101BE000959595959595858DFFF7F4FA012810D177
:101BF0000020FFF7D1FA01280BD1049848B90499C5
:101C0000C8B20DF0CBFF9048007E012801DD0DF039
:101C100061FF6FE0FFF7DEFA01280AD10020FFF72D
:101C2000BBFA012805D1049818B90499C8B20DF07F
:101C3000BCFF5FE0049890B90499C8B201210DF08F
:101C400003FC0499C8B20121FFF7BEFC0499C8B295
:101C50000DF076FF0499C8B200210DF0B0FF7A486C
:101C6000007E012801DD0DF01DFC43E00499C8B29F
:101C70000DF07BFF3EE03DE0049820B901222946AB
:101C800000200AF0CBFE35E035E00499C8B20DF033
:101C90007AFF2FE00DF075FF2CE00DF07BFF29E0BF
:101CA00004F0BEFB26E024E00DF076FF22E004996C
:101CB000C8B20DF057FF1DE00499C8B20DF04BFFFC
:101CC00018E00499C8B20DF077FF13E012E011E0BC
:101CD00010E05D48007E012802DD00200CF06CF869
:101CE00008E05948007E012802DD01200CF064F86C
:101CF00000E000BF00BFFFF767FA012806D1464A9F
:101D000008214FF47A7007F0DFFE83E0002410E032
:101D1000FFF760FA01280AD12046FFF73DFA0128B3
:101D200005D114B90DF028FF01E00DF0EFFD601CA6
:101D3000C4B24548007EA042EADC4348007E012848
:101D400027DD424800684249096888420CD33F4871
:101D500000683F490968401A42F21071884201D375
:101D600001200FE000200DE039480068C0F1FF308D
:101D700036490968084442F21071884201D30120B3
:101D800000E0002028B131480068314908600CF0BB
:101D900057F800243BE02046FFF708FA012814D149
:101DA000FFF718FA012824D10020FFF7F5F90128E0
:101DB0001FD10020FFF7B0F901281AD1CCB90022B9
:101DC000294620460AF02AFE13E0134807F0D8FE01
:101DD000C4EBC4011F4A02EB81014860C4EBC4009C
:101DE000114601EB80004068C4EBC40102EB8101A5
:101DF0008860FFF7EFF9012807D12046FFF7CCF9FB
:101E0000012802D12046FFF787F9601CC4B2012CDB
:101E1000C1DB00BFBDE600000000002024740020EC
:101E200034472073656E64206D7100006059002096
:101E30004F53514372656174652025732046616973
:101E40006C00000090590020B602002034030020EE
:101E5000380300202C51002088B000200690079005
:101E600000BF00BF18216846FEF704FA09F058FFCA
:101E70000AF01CF9412009F06DFF664A0821642030
:101E800007F022FEC5E0FFF79FF9012806D1614A5D
:101E900008214FF47A7007F017FEBAE002F07EFCDA
:101EA00004465C4A0821642007F00EFE10F054FF3F
:101EB0005948007A01284CD15848844202D05848E9
:101EC000844246D15748007E01282CD10EF08CF96F
:101ED00000283ED0544855490A6802604A6842606A
:101EE000098901810020FFF717F9012806D1002395
:101EF0001A4619460B2010F0A1FB00E000BF40215C
:101F00004B4802F040FC434A0821642007F0DCFD06
:101F10004021474802F035FC3E4A082140F6B830DF
:101F200007F0D2FD15E010F0C9FF90B14021404804
:101F300002F029FC374A0821642007F0C5FD402142
:101F40003B4802F01EFC334A082140F6B83007F047
:101F5000BBFD3148007A02285AD13248007E012860
:101F60002FD100200DF0DAFD012851D10EF03CF9FF
:101F700000284DD00A222D492B48FEF79FF930B991
:101F8000002304221946022010F038FE05E0002349
:101F90001A462849184610F0BFF94021244802F09B
:101FA000F2FB1C4A0821642007F08EFD40212048E6
:101FB00002F0E7FB174A082140F6B83007F084FD2D
:101FC00026E01D48D0F813026421B0FBF1F5284645
:101FD00011F03CFAE0B11048007898B9402114485B
:101FE00002F0D1FB0B4A0821642007F06DFD40216F
:101FF0000F4802F0C6FB074A082140F6B83007F048
:1020000063FD05E000231A460C49184610F084F9D8
:1020100000BF38E70000002064600020300400208A
:1020200070050020247400205A6000207060002099
:10203000001C0140D00400204C450020E404002096
:1020400008B50FF01FF86A460821642007F03CFD30
:102050000FF0A9F80EF054F81FE0FFF7B5F80128CB
:1020600006D10E4A08214FF47A7007F02DFD14E0D6
:1020700010F062F80FF072F80EF030FA02F0D6FBB2
:102080000EF0F6FF06480EF0D3FE00F0D5FF034A2F
:102090000821012007F018FD00BFDEE70000002046
:1020A0004C45002000B58BB00AA803210022059200
:1020B000CDE9062108901420FA2119224E4BCDE9D2
:1020C0000132CDE903101E2000234C4A4CA10090A0
:1020D0004E4807F005F90AA8032100220592CDE930
:1020E00006210890142096210F22494BCDE9013298
:1020F000CDE9031006200023464A47A10090494835
:1021000007F0EEF80AA8032100220592CDE9062186
:10211000089014204FF4AF712322434BCDE90132D4
:10212000CDE9031007200023404A41A10090434815
:1021300007F0D6F80AA8032100220592CDE906216E
:10214000089014204FF496711E223D4BCDE90132C8
:10215000CDE90310082000233A4A3BA100903D48F6
:1021600007F0BEF80AA8032100220592CDE9062156
:10217000089014204FF4AF712322374BCDE9013280
:10218000CDE9031003200023344A35A100903748DD
:1021900007F0A6F80AA8032100220592CDE906213E
:1021A000089014204FF4FA713222314BCDE90132FC
:1021B000CDE903100A2000232E4A2FA100903148B8
:1021C00007F08EF80AA8032100220592CDE9062126
:1021D0000890142064210A222B4BCDE90132CDE96D
:1021E00003100B200023294A29A100902B4807F057
:1021F00077F80BB000BD0000540A0020591E0008FB
:102200004170702043617264000000009C0900204E
:10221000F40E002041200008417070204368617274
:10222000676500003C0E002004120020A122000877
:10223000417070204477696E000000004C1100204E
:1022400034180020B91600084170702034474D61E1
:10225000696E00007C1700209C1D00207918000882
:10226000417070203447526563760000E41C002002
:10227000CC230020451B0008417070203447536573
:102280006E64000014230020542C0020B52900089F
:1022900041707020646C7436343500009C2B002033
:1022A00030B589B005460024182103A8FDF7E2FFE8
:1022B000C04A08214FF47A7007F006FC0CF096FC37
:1022C0000FF096FC0AF020FCBB48007E012801D1EB
:1022D0000AF01AFC01AB1422B8A1BC4806F068FC55
:1022E000BDF8040028B1B5A1B9A00DF095FC09B066
:1022F00030BDB04A08214FF47A7007F0E5FB10F0CA
:10230000BDFA56E1FEF760FF01280AD12146B54823
:1023100001F05AFBA74A08214FF47A7007F0D4FB6A
:1023200047E14FF4FA703223AF4A03A90090A7485F
:1023300010F044F800287CD10398012846D00428E6
:1023400007D0062876D10798C1B2A748FEF790FEBD
:102350000FE104B90DE1A5490698884217D0A449B8
:102360000698884213D0A349069888420FD0A24904
:10237000069888420BD0A1490698884207D0A04908
:102380000698884203D09F490698884216D19748FC
:1023900084421AD09648844217D09648844214D07A
:1023A0009548844211D0954884420ED00220964927
:1023B00088702146069801F007FB06E0002092494C
:1023C00088702146069801F0FFFAD2E0059820B106
:1023D000012830D0022878D178E08C48007860B1AC
:1023E0007548007E012804D1894806F0ABFD0DF048
:1023F000F5FB874806F0E0FD1AE06F48007E0128F3
:1024000009D1012100200DF01FF800231A461946BA
:10241000184610F013F94FF4F2737E4A0021092098
:102420000FF0BEFB40237C4A00210A200FF0B8FBCE
:102430009CE09FE09CE07548007830B10020734933
:1024400008700121FFF7C0F83EE072481C30734964
:102450000A6802608A888280897981715038D0F850
:102460005710C0F85B100698C1B26A48343880F83B
:1024700017125148007E012812D10CF017F80023E2
:102480001A461946112010F0D9F865490B686149C0
:10249000343991F8170210220021FEF787FC13E06F
:1024A0005548A04206D0022057498870214651481D
:1024B00001F08AFA5A490B685649343991F81702E3
:1024C00010220121FEF772FC50E04EE051481C3012
:1024D00052490A6802608A88828089798171002065
:1024E00011F098F84B493439C1F85B000698C1B235
:1024F0004848343880F817122F48007E012812D13E
:102500000BF0D4FF00231A461946112010F096F85C
:1025100043490B683F49343991F8170210220021D2
:10252000FEF744FC09E03E490B683A49343991F81A
:10253000170210220121FEF739FC10F0D9FB002010
:10254000324908704FF4F2713648FDF793FE4FF4AC
:10255000F273344A002109200FF022FB40232E4A57
:1025600000210A200FF01CFB00E000BF00BF00E0CC
:1025700000BF00BF02F012F904461CB1E06808B1C8
:10258000E068804720480088012804D1022002909A
:1025900002A800F0E7FE1F493439087810F004FA69
:1025A0000EF0A4FE0FF078F810F0D6F90FF09EFDB3
:1025B00000BFA7E600000020247400206477696E45
:1025C000207461736B206D7100000000FC770020A7
:1025D0004F535143726561746520257320466169CC
:1025E0006C000000FC05002090780020BC04002056
:1025F000D0040020E4040020F80400200C05002092
:1026000070050020EC060020F403002040000020AC
:1026100002000020804500202460002024000020CB
:10262000987000201776002008B5002500F065FCA2
:1026300000F095FC00F059FC0646AD480068B6FB7A
:10264000F0F7384607F0E2FA684606F0C7FD0BF0EF
:10265000E5FE01F041FD0FF015FA0120A5490870D3
:10266000A5A00DF0D9FA90200EF0A2FD04F018FB01
:1026700043F63F0144F61F600CF086F804F046F87C
:102680008F2109200CF0B0F8FFF70CFDAA48006874
:10269000AA49086008460068000E096801F47F0135
:1026A00040EA1120A549098801F47F4140EA012050
:1026B000A249097840EA0160A04908609E48001DCF
:1026C00000689F49086008460068000E096801F428
:1026D0007F0140EA11209A49098801F47F4140EACC
:1026E00001209749097840EA0160954908609248BD
:1026F000083000689349086008460068000E0968C1
:1027000001F47F0140EA11208E49098801F47F41DC
:1027100040EA01208B49097840EA01608949086054
:1027200008460368864802688448016886A00DF060
:1027300073FA8B48814909680160814909684160E1
:1027400080490968816000BF06E08548405D10B996
:10275000AA20834948556D1C0C2DF6D341F66A0119
:10276000062003F09FFFC1E003F0BCFF7D48006836
:10277000401C7C4908606A460821642007F0A4F9DF
:1027800001F0D6FB78488078784908717648C0789F
:102790006430887174484078487175480078887052
:1027A0007348407848707248807808707148D0F853
:1027B000A0007049D1F8A41001446E48D0F8A000E0
:1027C00064225043B0FBF1F46B480068A04201DA88
:1027D000694804606948D0F8A0006849D1F8A4109D
:1027E00001446648D0F8A00064225043B0FBF1F4E5
:1027F00063480068A04201DA614804606148D0F88B
:10280000A0006049D1F8A41001445E48D0F8A000AF
:1028100064225043B0FBF1F45B480068A04201DA47
:10282000594804605948D0F8A0005849D1F8A4107C
:1028300001445648D0F8A00064225043B0FBF1F4A4
:1028400053480068A04201DA514804605148D0F86A
:10285000A0005049D1F8A41001444E48D0F8A0007F
:1028600064225043B0FBF1F44B480068A04201DA07
:10287000494804604948D0F8A0004849D1F8A4105C
:1028800001444648D0F8A00064225043B0FBF1F464
:1028900043480068A04201DA414804604148D0F84A
:1028A000A0004049D1F8A41001443E48D0F8A0004F
:1028B00064225043B0FBF1F43B480068A04201DAC7
:1028C000394804603948D0F8A0003849D1F8A4103C
:1028D00001443648D0F8A00064225043B0FBF1F424
:1028E00033480068A04201DA314804603CE7000048
:1028F000983901084000002053797374656D2052A7
:1029000065736574202053797374656D2052657307
:102910006574202053797374656D205265736574F6
:102920002E2E2E2E2E2E2E2E2E2E2E2E2E2E2E2EC7
:102930002E2E2E2E2E0D0A00E8F7FF1F3400002049
:10294000380000203C0000204D43552049643A25C2
:10295000303878202530387820253038780A000043
:10296000E42D00204807002044020020240000201D
:102970004002002054070020040000209C09002091
:10298000080000203C0E00200C0000204C1100200C
:10299000100000207C17002014000020E41C002000
:1029A00018000020142300201C0000209C2B002075
:1029B0002000002030B589B00546182103A8FDF796
:1029C00059FC02AB1522FBA1FE4806F0F1F8BDF858
:1029D000080028B1F7A1FCA00DF01EF909B030BD28
:1029E0000CF0A4F9FD4A0821642007F06DF84DE2CF
:1029F000FB48407E00287DD1F84807F0C1F8F9492E
:102A0000086008460068F849096888420BD3F54811
:102A10000068F5490968401AB0F57A7F01D30120B2
:102A20000EE000200CE0F0480068C0F1FF30ED49F6
:102A300009680844B0F57A7F01D3012000E0002046
:102A400000285BD0E948007870B9E9A103C9CDE955
:102A50000001E9480099C0F80A10BDF80410C181CE
:102A600010210CF07FFA00BFE048007801280ED159
:102A7000E2A103C9CDE90001DF480099C0F80A10BE
:102A8000BDF80410C18110210CF06CFA00BFD748CA
:102A9000007802280ED1DBA103C9CDE90001D64898
:102AA0000099C0F80A10BDF80410C18110210CF083
:102AB00059FA00BFCD48007803280ED1D3A103C92D
:102AC000CDE90001CC480099C0F80A10BDF8041007
:102AD000C18110210CF046FA00BFC4480078401CA8
:102AE000C249087008460078042801DB00200870FD
:102AF000BC4800E0C5E10068BB4908604FF4FA70CB
:102B00003223C44A03A90090AE480FF057FC0028B6
:102B10007DD12E22BF49091DBF48FDF792FB0498C5
:102B20000B28F5D1BC48807A3338C1B2BA48C07A94
:102B30003338C0B241EA0021B748007B3338C0B215
:102B400041EA0041B448407B333841EA0060B34970
:102B5000086008460068B0F5C00F7DD0B049084451
:102B600038B1B0F5803F37D0AE490844002874D161
:102B7000F1E0A948807BC01E00F00F01A648807BD1
:102B80003338001100EB800001EB4000A6490861DA
:102B9000A148C07BC01E00F00F019F48C07B3338A6
:102BA000001100EB800001EB4000642110FB01F0FC
:102BB0009D49C8600846C0680969084400219B4ACD
:102BC00003C29A4903C9FDF79EFD04469849FDF7E3
:102BD0003EFC9849486053E18F48807BC01E00F05E
:102BE0000F018D48807B3338001100EB800001EB32
:102BF00040008D4908618848C07BC01E00F00F016D
:102C00008548C07B3338001100EB800000E03DE1D7
:102C100001EB4000642110FB01F08349C8607E484D
:102C2000007CC01E00F00F017B48007C333800118F
:102C300000EB800001EB400042F2107110FB01F04C
:102C40007949886008468068C968084476490969F6
:102C500008440021754A01E00CE010E103C2734909
:102C600003C9FDF750FD04467349FDF7F0FB7149B8
:102C7000086005E16848807BC01E00F00F016648CF
:102C8000807B3338001100EB800001EB4000664987
:102C900008616148C07BC01E00F00F015E48C07B28
:102CA0003338001100EB800001EB4000642110FB81
:102CB00001F05D49C8605848007CC01E00F00F015B
:102CC0005548007C3338001100EB800001EB4000D8
:102CD00042F2107110FB01F0534988604E48407C6D
:102CE000C01E00F00F014C48407C3338001100EB4F
:102CF000800001EB4000514948434B494860464839
:102D0000807CC01E00F00F014348807C33380011E6
:102D100000EB800001EB400049494843424908600C
:102D200008460068496808443F49896808443E49A4
:102D3000C96808443C490969084400213B4A03C268
:102D40003A4903C9FDF7DFFC04463E49FDF77FFB26
:102D50003849C86094E03048807BC01E00F00F0105
:102D60002D48807B3338001100EB800001EB4000E0
:102D70002D4908612848C07BC01E00F00F0126487D
:102D8000C07B3338001100EB800001EB4000642170
:102D900010FB01F02449C8601F48007CC01E00F0F1
:102DA0000F011D48007C3338001100EB800001EB5F
:102DB000400049E06477696E207461736B206D7127
:102DC000000000009C7900204F53514372656174EC
:102DD00065202573204661696C000000000000201A
:102DE00024740020180700201C0700203007002052
:102DF000333393330D16000020070020333434356D
:102E0000B116000033343535B21600003333363591
:102E1000B2160000CC790020FE7900203407002093
:102E200000FFFEFD0001FEFF1C7A00203807002095
:102E3000000020418C79002000007A4440420F00BD
:102E400000E1F50500401C4642F2107110FB01F054
:102E50000F49886008468068C96808440C490969B8
:102E6000084400210B4A03C20A4903C9FDF74BFC81
:102E700004460949FDF7EBFA0849886000E000BF05
:102E800004E002AA0821642006F01EFEB0E500005E
:102E90001C7A00203807002000401C468C79002056
:102EA00010B50421064881760021C1610220054940
:102EB00088700021044800F087FD012010BD00004B
:102EC0004C450020F40300203004002001469929DD
:102ED00001DD0020704701F00F000B1103EB8303AD
:102EE00000EB4300C2B21046F4E700B585B0684677
:102EF00009F084FB009805B000BD10B54FF4407098
:102F000005F0D0FA10BD2DE9F04105460E46002728
:102F10001DE04FF00008002410E055F82410601C5C
:102F200055F82000814208D9621C05EB820105EBAF
:102F300084000BF027FB4FF00108641C701EC01BBF
:102F4000A042EADCB8F1000F00D103E07F1C701E44
:102F5000B842DEDC00BFBDE8F08100BFFEE710B57F
:102F600000F020F800F01AF810BD000010B50024A1
:102F700000BF00BFFDF71EF9044600BF00BF1021CF
:102F8000054803F05BFF00BF00BF2046FDF716F9C0
:102F900000BF00BF10BD0000F441002010B5FFF7D6
:102FA000E5FF10BD10B500200249086000F00AF8E6
:102FB00010BD000074010020014908607047000046
:102FC0007401002010B5FFF790FF04460848006820
:102FD00040F08070064908600020064948600846B5
:102FE000006840F0010008602046FFF7E5FF10BDD3
:102FF000FCED00E0001000E0014948687047000067
:10300000001000E001460020302905DB392903DCEF
:10301000A1F13002D0B20EE0412905DB462903DCE4
:10302000A1F13702D0B206E0612904DB662902DC97
:10303000A1F15702D0B2704710B50E4800780128B0
:1030400015D10D480DF0CEFB012810D10B4A0821F7
:10305000C82006F039FD02200649087200200870D9
:1030600007488078022802D1002005498870012095
:1030700010BD0000646000204C45002000000020CE
:10308000F403002010B500200449086004230A4618
:10309000002105200EF084FD012010BD9870002055
:1030A00070B506460C4615460CB1042D01D0002023
:1030B00070BD20780006617840EA0140A17840EABE
:1030C0000120E17808430649086225230A460021C9
:1030D00001200EF065FD04F09BFC0120E8E70000F4
:1030E0002474002010B50020FEF756F801280BD0FC
:1030F0001E480078401CC0B21C490870072803DD38
:10310000002008700AF07EFBFEF764F8012801D069
:1031100004F0E4F9FEF75EF8012801D0002010BDAC
:1031200000241DE02046FEF737F801280ED03CB9F8
:103130000F48C28800F10801204603F0B3FE05E005
:1031400042F248620BA1204603F0ACFE2046FEF797
:1031500023F8012802D020460AF048FB601CC4B2C4
:103160000348007EA042DDDC0120D8E706030020F2
:10317000B60200203131342E35352E3138362E321C
:10318000303600000146632901DD002070470A2027
:1031900091FBF0F300FB13100A2391FBF3F300EB18
:1031A0000310C2B21046F1E721B1026842F00102F9
:1031B000026004E002684FF6FE731A400260704736
:1031C0000021016041608160C160016141618161F4
:1031D000C161016241628162704710B500220268DC
:1031E00047F6F0739A430C6A8B6823430C692343B8
:1031F0004C6923438C692343CC6923434C6A2343A2
:103200008C6A23431A430260CB6843600B68836077
:103210004B68C36010BD000001684FF6FE7211409C
:1032200001600021016041608160C1604B498842BA
:1032300008D14A490839496841F00F01474A083A1C
:1032400051608AE045491431884208D14349083920
:10325000496841F0F001414A083A51607DE03F4938
:103260002831884208D13D490839496841F47061E4
:103270003A4A083A516070E038493C31884208D1F6
:1032800036490839496841F47041344A083A516076
:1032900063E032495031884208D1304908394968E1
:1032A00041F470212D4A083A516056E02B496431AF
:1032B000884208D129490839496841F47001274AF0
:1032C000083A516049E025497831884208D12349BC
:1032D0000839496841F07061204A083A51603CE081
:1032E0001F49884206D1011F096841F00F01021FE2
:1032F000116032E01A491431884208D11849091F77
:10330000096841F0F001164A121F116025E01449C6
:103310002831884208D11249091F096841F47061B7
:103320000F4A121F116018E00D493C31884208D144
:103330000B49091F096841F47041094A121F1160C5
:103340000BE007495031884207D10549091F096838
:1033500041F47021024A121F1160704708000240B8
:103360000804024070B5054601F018FA04460CB98D
:10337000A06810B12846A168884770BD2DE9F041CA
:1033800005460E4617460DB106B117B90020BDE837
:10339000F081002414E00C4830F83400A8420DD12C
:1033A000094800EBC400406840B1074800EBC40086
:1033B0003A463146436828469847E8E7601CC4B25D
:1033C000102CE8D30120E2E7D83E01087047002125
:1033D00007E0002201E0531C9AB26E2AFBDB4B1C73
:1033E00099B28142F5DB704737B5A4B0044601F0CD
:1033F000D5F9054615B9002027B030BD782106A8BB
:10340000FCF738FF9DF894009DF895109DF89620E4
:103410009DF89830CDE90132CDE903109DF899006F
:1034200000909DF89A0000F26C7308A2782106A81B
:103430000CF002FC217941F2050242EAC1101E2281
:1034400006A908F09BFB0120D6E700002530346474
:103450002D2D253032642D2D253032642D2D253033
:1034600032643A3A253032643A3A25303264000008
:103470002DE9F04106460D46002401F08FF907467C
:10348000122D00DA17B90020BDE8F081002417E002
:1034900004EB44000D4911F82000A8420ED104EBC2
:1034A00044000B4603EB8000028904EB440003EB6D
:1034B000800041683046FCF7C4FE03E0601CC4B2E3
:1034C000122CE5DB00BF0120DEE70000043D01080F
:1034D0002DE9F04106460D46002401F05FF907464C
:1034E000122D00DA17B90020BDE8F081002417E0A2
:1034F00004EB44000D4911F82000A8420ED104EB62
:1035000044000B4603EB8000027A04EB440003EB1B
:1035100080004168304608F031FB03E0601CC4B213
:10352000122CE5DB00BF0120DEE70000043D0108AE
:1035300037B5A4B0044601F031F9054615B90020AD
:1035400027B030BD782106A8FCF794FE9DF89400C2
:103550009DF895109DF896209DF89830CDE90132A0
:10356000CDE903109DF8990000909DF89A0000F2B3
:103570006C730BA2782106A80CF05EFB1E2206A934
:10358000204608F0FBFA4FF6C07204EA020130311F
:1035900088B24FF6FF710AF017FE0120D0E7000055
:1035A000253034642D253032642D253032642025B9
:1035B0003032643A253032643A25303264000000FB
:1035C0002DE9F04106460D46002401F0E7F80746D4
:1035D000152D00DA17B90020BDE8F081002417E0AE
:1035E00004EB44000D4911F82000A8420ED104EB71
:1035F00044000B4603EB8000028904EB440003EB1C
:10360000800041683046FCF71CFE03E0601CC4B239
:10361000152CE5DB00BF0120DEE70000DC3D0108E2
:1036200010B56048007E01287ED10020FDF7B4FD72
:10363000B0B10020FDF770FD90B100205A4908702C
:10364000084600785949097888421BD056480078C6
:1036500056490870012142F2600008F053FA11E067
:10366000012051490870084600785049097888427D
:1036700008D04D4800784D490870002142F26000A2
:1036800008F040FAFDF768FD60B949480078012864
:1036900008D1002142F2500008F034FA00204449D9
:1036A00008707CE0FDF758FD18B1FDF755FD632863
:1036B00012D100203C494870084640783B4949787F
:1036C00088426CD03848407838494870002142F22E
:1036D000500008F017FA62E0FDF73EFD012811D115
:1036E000314948700846407830494978884256D078
:1036F0002D4840782D494870012142F2500008F0D1
:1037000001FA4CE0FDF728FD142814DA02202649BE
:103710004870084640782549497888423FD0224879
:1037200040782249487000E02FE0022142F2500028
:1037300008F0E8F933E0FDF70FFD192812DA03204D
:10374000194948700846407818494978884226D077
:103750001548407815494870032142F2500008F09E
:10376000D1F91CE0042010494870084640780F4900
:103770004978884213D00C4840780C49487004219D
:1037800042F2500008F0BEF909E0C82142F26000A0
:1037900008F0B8F9C82142F2500008F0B3F901204E
:1037A00010BD000024740020040400200604002042
:1037B0000804002070B504460D467C216D48FCF7D6
:1037C00059FD207C0006218A01F47F4140EA012056
:1037D000216901F47F0140EA1120216940EA11606A
:1037E000644908600A2204F16C016248001DFCF77C
:1037F00028FD142204F11C015E480E30FCF721FD67
:10380000207D0006A18A01F47F4140EA0120616920
:1038100001F47F0140EA1120616940EA11605549D5
:1038200048620A2204F1300152482830FCF709FDB1
:103830005049206848630846D4F862108163D4F880
:103840006610C163B4F86A10A0F840104230616895
:103850000160A1684160A18901816421A069B0FB78
:10386000F1F000066422A169B1FBF2F101F47F419D
:1038700040EA0120A169B1FBF2F101F47F0140EAC5
:103880001120A169B1FBF2F140EA11603949C86425
:1038900094F878000006B4F8781001F47F4140EA0B
:1038A0000120A16F01F47F0140EA1120A16F40EADD
:1038B000116030490865142204F13A012D48543052
:1038C000FCF7BFFC142204F14E012A486830FCF7D3
:1038D000B8FC297941F2010242EAC11022222549AD
:1038E00008F04CF9297941F2120242EAC11004228F
:1038F0002049243108F042F9297941F2140242EAC0
:10390000C1100A221B49283108F038F9297941F2FF
:10391000190242EAC11004221649343108F02EF986
:10392000297941F21B0242EAC1100A2211493831B9
:1039300008F024F929794FF4815242EAC1100E228D
:103940000C49423108F01AF9297941F2270242EA7A
:10395000C11004220749503108F010F9297941F2C9
:10396000500242EAC11028220249543108F006F9F7
:10397000012070BD187200201CB508480168009134
:103980008188ADF8041080798DF806004FF440501E
:10399000DDE90012FFF7CCFD00201CBD2400002053
:1039A0001CB504460748016800918188ADF80410F1
:1039B00080798DF806002046DDE90012FFF714FD3E
:1039C00000201CBD2400002070B504460D4604B93B
:1039D00070BD05B125600C480460208A0B49088041
:1039E00009490968087908F087F807480068C0683D
:1039F00040B105480068C068401C18B10249096818
:103A0000C868804700BFE3E7F0030020F40300200C
:103A10002DE9F04107460E46144606B10CB9BDE843
:103A2000F08100F01DF8E11CC8B203F0F7F8822025
:103A300003F0F4F8384603F029F9002504E0705D3E
:103A400003F0ECF8681CC5B2A542F8DBFF2003F0D8
:103A5000E5F8FF2003F0E2F803F002F900BFDEE72B
:103A600010B545F6A52003F011F910BD014600BFC1
:103A7000080900EB8000420001F00F001044C0B2C2
:103A800070470146002204E0501CC2B2A1F10A00B6
:103A9000C1B20A29F8DA100741EA10607047000045
:103AA00010B50121080708F065FD012007F04CFE64
:103AB000012008F07FFD002008F07CFD012008F0C7
:103AC0001FFF00BF412008F0FDFE0028FAD04FF490
:103AD000807008F08BFDFF200D4908607F200D49A4
:103AE0000860012008F07CFD00F054FA09480068E5
:103AF0000949486006480068886000200860084658
:103B000000F0E4F810B905A00CF086F810BD000034
:103B100054020020500200204045002045525443EA
:103B2000205072657363616C657220436F6E6669C5
:103B300067206661696C656421210D0A0000000040
:103B400008B50022009200200021104A126802F0FD
:103B50004002CAB9421E0D4B1A6000BF0B4A1268E0
:103B600002F04001009A521C0092009AB2F5803F88
:103B700001D00029F2D0054A126802F040020AB1D1
:103B8000012002E0002000E0012008BD0C280040D8
:103B90000348006820F08000014908607047000079
:103BA0000C28004038B505460C460020009013480C
:103BB000006800901148001F0068114908400090FB
:103BC0000098000CE0700098C0F30420607000982A
:103BD00000F03F00A0700098C0F3423020705DB943
:103BE000E078FFF743FFE0706078FFF73FFF607019
:103BF000A078FFF73BFFA07038BD00000828004008
:103C00003FFFFF0038B505460C46002000901448E1
:103C10000068009012480838006812490840009077
:103C20000098C0F3054020700098C0F30620607033
:103C3000009800F07F00A070009800F48000000C55
:103C4000E0705DB92078FFF711FF20706078FFF712
:103C50000DFF6070A078FFF709FFA07038BD00006D
:103C6000082800407F7F7F00CA22174B1A6053222A
:103C70001A6091B1144A1C3A126820F004031A43E6
:103C8000114B1C3B1A60104A1C32126800F00403EE
:103C90001A430D4B1C331A6011E00B4A1C3A126890
:103CA00020F004039A43084B1C3B1A60064A1C325E
:103CB000126800F004039A43034B1C331A60FF227E
:103CC000014B1A60704700002428004030B50446BC
:103CD0000025CA201549086053200860FFF730FF0F
:103CE00000B91DE011481C38006820F040000F4961
:103CF0001C39086008460068216808430B491C39D4
:103D000008600A491439A068086008460068A1885C
:103D100040EA0140054914390860FFF739FF0125E1
:103D2000FF2002490860284630BD000024280040DA
:103D300008B501460020009004480090009800EB70
:103D4000810000900098006808BD000050280040E5
:103D50002DE9F04105460C46002600274DB9607854
:103D600000F01000102804D1607820F010000A3014
:103D7000607005B908E06078FFF778FE0646A07825
:103D8000FFF774FE064600BF55B1E0780004617885
:103D900040EA0120A1780843217840EA413611E049
:103DA000E078FFF76EFE4FEA00486078FFF769FEA3
:103DB00048EA0028A078FFF764FE48EA0008207867
:103DC00048EA4036CA201249086053200860FFF7CD
:103DD000B7FE08B9002714E00E4830400C492039DE
:103DE0000860FFF7D5FE0A481C38006800F0200084
:103DF00030B900F0CFF808B9002702E0012700E051
:103E00000127FF20024908603846BDE8F081000024
:103E1000242800403FFFFF002DE9F04105460C46F5
:103E2000002600274DB92E48006800F0400000B180
:103E300002E00020E07000BF0DE02948006800F0BB
:103E4000400020B12078FFF711FE064602E0002076
:103E5000E07000BF00BF55B120780004617840EAEF
:103E60000120A1780843E17840EA014611E020787A
:103E7000FFF707FE4FEA00486078FFF702FE48EAC6
:103E80000028A078FFF7FDFD48EA0008E07848EA3E
:103E90000046CA2012491C31086053200860FFF711
:103EA0004FFE08B9002713E00E4830400C4908398E
:103EB0000860FFF76DFE0A48006800F0200030B986
:103EC00000F068F808B9002702E0012700E00127A8
:103ED000FF2003491C3108603846BDE8F08100002E
:103EE000082800407F7F7F0010B500200E49C87071
:103EF0000820087010204870002088700120FFF70B
:103F00008BFF052009490870092088700720487038
:103F10002220C8700120FFF71BFF43F2F22100208E
:103F200000F068F810BD00004002002044020020AC
:103F300010B504490020FFF735FE03490020FFF7C4
:103F400061FE10BD44020020400200200EB5022098
:103F50008DF8080001208DF80B008DF80900002075
:103F60008DF80A0002A804F065FA4FF400100090E2
:103F700001208DF8060000208DF8040008208DF83F
:103F80000500684600F044F80121C803FFF76CFE05
:103F90000EBD000008B50022009200200021CA22B8
:103FA000134B1A6053221A60114A183A126822F011
:103FB000A0020F4B183B1A6000BF0D4A183A126856
:103FC00002F02001009A521C0092009AB2F5003FC4
:103FD00001D00029F1D0064A183A126802F02002F6
:103FE0000AB1012000E00020FF22014B1A6008BD49
:103FF0002428004008B500220092044A0092009A4A
:1040000002EB80020092009A116008BD5028004027
:10401000002123498279002A3AD00A4612680368AF
:104020009A430B461A600A1D126803689A430B1DD7
:104030001A60027911440A6803681A430A60184A30
:104040000832126803689A43154B08331A601A1D28
:10405000126803689A43124B0C331A604279102A93
:104060000ED11A1F126803681A430D4B08331A60E9
:104070001A1D126803681A43094B0C331A600DE0CD
:104080000749427911440A6803681A430A6005E047
:10409000027911440A6803689A430A607047000075
:1040A0000004014070B505460C4616460CB90020C8
:1040B00070BD0121064881766178207841EA0021AF
:1040C0000348C16100210348FFF77EFC0120EFE7B0
:1040D0004C4500203004002008B50020009010213D
:1040E0004E4800F050FB09F0A9FD09F097FD0020B3
:1040F000009009F0B3FD09F0BDFC012802D109F0E0
:1041000007FD0090009820F0FF00454988420DD03F
:1041100044490098884209D00520FFF758F909F072
:10412000A9FC012802D109F0F3FC009000203E49CF
:1041300008603C49491E0098884204D14FF47E2013
:10414000394908605EE039490098884207D14FF448
:10415000FC203549086001203549087052E0334998
:10416000491C0098884206D0009820F470402D49E0
:10417000491E884207D14FF47E202B490860012058
:104180002B4908703EE029494C390098884207D1F4
:104190004FF4FF102449086001202549087031E0E0
:1041A000224943390098884206D122481E490860B6
:1041B00001201F49087025E0009820F0FF001849F1
:1041C000884205D0009820F470401649884204D1F6
:1041D0004FF4FF101449086014E0009820F0FF002D
:1041E0001549884206D0009820F470400D49491CBA
:1041F000884203D10F480C49086003E04FF4FF10D8
:10420000094908600D490098884202D109480649C9
:104210000860002009F022FD08BD000000080140F0
:1042200000461F001530EF00DC0300208D25BF0085
:10423000E003002000E03F0000471F0017405E0041
:1042400008B5684600F0A1FA0120ADF80000002092
:104250008DF803006946024800F004F808BD00002C
:10426000000801402DE9F04102460025002600200B
:1042700000230024002791F803C00CF00F0591F8EB
:1042800003C00CF0100CBCF1000F03D091F802C079
:104290004CEA050591F800C0BCF1000F31D014685C
:1042A00000202BE04FF0010C0CFA00F3B1F800C035
:1042B0000CEA03069E4220D183004FF00F0C0CFA4B
:1042C00003F7BC4305FA03FC4CEA040491F803C06D
:1042D000BCF1280F06D14FF0010C0CFA00FCC2F81B
:1042E00014C00AE091F803C0BCF1480F05D14FF0AB
:1042F000010C0CFA00FCC2F810C0401C0828D1D3F5
:104300001460B1F800C0BCF1FF0F34DD5468002028
:104310002EE000F1080C4FF0010808FA0CF3B1F898
:1043200000C00CEA03069E4221D183004FF00F0C1F
:104330000CFA03F7BC4305FA03FC4CEA040491F8B9
:1043400003C0BCF1280F05D100F1080C08FA0CF8E5
:10435000C2F8148091F803C0BCF1480F07D100F1F6
:10436000080C4FF0010808FA0CF8C2F81080401C45
:104370000828CED35460BDE8F0810000F0B50446B3
:10438000B4F1004F72D90023002224F00045EB095C
:1043900005F07F052A0905F00F05052B03D09700CE
:1043A00005FA07F603E05708BF0005FA07F6062BE3
:1043B00015D2DFE803F00305080B0E11EA480FE001
:1043C000E948001D0CE0E848083009E0E6480C30F8
:1043D00006E0E548103003E0E348143000E000BF99
:1043E00000BF5AB9052B04D1076827F003070760FF
:1043F0004AE0076827F00F07076045E0012A0BD164
:10440000052B04D1076827F00C0707603CE007681C
:1044100027F0F007076037E0022A0BD1052B04D103
:10442000076827F0300707602EE0076827F47067F9
:10443000076029E0032A0BD1052B04D1076827F078
:10444000C007076020E0076827F4704707601BE09B
:10445000042A04D1076827F47027076014E0052AAE
:1044600005D1076827F4700707600DE012E0062AFF
:1044700004D1076827F07067076005E0072A03D1B9
:10448000076827F070470760012902D107683743A2
:10449000076067E1B4F5406F77D020DC402C75D021
:1044A0000CDC042C3FD004DC012C4ED0022C6ED14D
:1044B00038E0102C59D0202CF9D169E0B4F5007FF8
:1044C00076D005DC802C77D0B4F5807FEFD197E0F3
:1044D000B4F5407F6ED0B4F5006FE8D1C0E0B4F120
:1044E000807F68D011DCB4F5803F1ED006DCB4F5C7
:1044F000804F71D0B4F5004FD9D115E0B4F5003F2D
:1045000014D0B4F5802FD2D111E0B4F1007F74D073
:10451000B4F1806F72D0B4F1884F70D0B4F1904F85
:10452000C5D10DE100BF00BF00BF00BF00BF8E4876
:1045300020384068A0438C4A203A5060012903D1BA
:1045400010464068204350600BE18748203840689F
:10455000864A1040844A203A5060012904D110460E
:10456000406840F001005060FBE07F482038406820
:1045700020F030007C4A203A5060012904D11046D6
:10458000406840F010005060EBE079E025E0E7E0A3
:1045900075482038406820F03000734A203A506057
:1045A000012904D11046406840F020005060D8E056
:1045B00036E001E044E083E06B482038406820F0BA
:1045C000C000694A203A5060012904D11046406871
:1045D00040F080005060C4E062E0634820384068EA
:1045E00020F0C000604A203A5060012904D11046F2
:1045F000406840F040005060B3E071E080E08FE040
:1046000059482038406820F44070574A203A50609A
:10461000012904D11046406840F480705060A0E049
:1046200051482038406820F440704F4A203A50608A
:10463000012904D11046406840F40070506090E0B9
:1046400049482038406820F44070474A203A50607A
:10465000012904D11046406840F44070506080E069
:1046600041482038406820F440603F4A203A50607A
:10467000012904D11046406840F40060506070E0A9
:1046800039482038406820F44060374A203A50606A
:10469000012904D11046406840F44060506060E059
:1046A00031482038406820F4C0402F4A203A5060FA
:1046B000012904D11046406840F48040506050E029
:1046C00029482038406820F0E060274A203A5060AE
:1046D000012904D11046406840F08070506040E0ED
:1046E00021482038406820F0E0601F4A203A50609E
:1046F000012904D11046406840F00070506030E05D
:1047000019482038406820F0E060174A203A50608D
:10471000012904D11046406840F08060506020E0DC
:1047200011482038C06920F040600F4A203AD0611B
:10473000012904D11046C06940F08060D06110E0CA
:1047400009482038C06920F04060074A203AD0610B
:10475000012904D11046C06940F00060D06100E03A
:1047600000BF00BFF0BD000020000140FEFFFF7F42
:104770000246002093680B400BB1012000E00020AE
:10478000704741617047016170474FF6FF710180CA
:10479000022181700421C170704700000148006847
:1047A00070470000F00300200146632901DD00206E
:1047B00070470A2091FBF0F300FB13100A2391FBD2
:1047C000F3F300EB0310C2B21046F1E710B5104945
:1047D00010480068FBF709FE0446FBF7AFFF0E49DF
:1047E00008610E490E480068FBF7FFFD0446FBF721
:1047F000A5FF094988810B490B480068FBF7F5FDC7
:104800000446FBF79BFF81B20348C18110BD000045
:1048100000007A440C0200204C4500200000C842F1
:1048200004020020000020410002002070B526484C
:1048300005F0A6F92549086025480068FBF7ABFF9D
:1048400004460022234BFBF7D1FF38D222480168EF
:1048500022480068FBF7E2FF28D11C480068204985
:10486000096888420CD3194800681D490968401A34
:104870004EF66021884201D301200FE000200DE0B8
:1048800017480068C0F1FF301049096808444EF627
:104890006021884201D3012000E0002098B101206E
:1048A000104981F8340001F031FF0CE0074800683E
:1048B0000B490860084800680849086003E003489D
:1048C00000680749086070BD00000020A4020020B5
:1048D000040200200000F03F0C0200209C02002097
:1048E000A80200204C45002010B52A480078052871
:1048F0001FD2DFE800F0030A11181B00022100207C
:1049000008F012FA2449086019E00221012008F099
:104910000BFA2249086012E00221132008F004FA81
:104920001F4908600BE008F0B7F908E008F020FA2A
:1049300005E008F021F900201649087000BF00BF0B
:1049400014480078401C134908701348006840F66A
:10495000047188420BD11148006841F283118842EA
:1049600005D10F48006840F6FF71884210D001F071
:10497000CDFE094801680BA00BF04EF9074801680D
:104980000FA00BF049F90648016814A00BF044F998
:1049900010BD000034020020980100209C0100207E
:1049A000A0010020746573745531365F5359534329
:1049B0004F4E44617461203D2025780A200000009C
:1049C000746573745531365F454D55434F4E4461A0
:1049D0007461203D2025780A2000000074657374FE
:1049E0005531365F454D55434F4E32446174612019
:1049F0003D2025780A20000070B50024002517E02E
:104A00006006040E01200C4908600A200CF042FCEC
:104A100000200A49C1F8A0010A200CF03BFC06481E
:104A200088380068012801D144F00104681CC5B22F
:104A3000082DE5DB204670BDA08121420080214287
:104A400010B50446204600F001F810BD70B50546CB
:104A50002E4600241AE080202041304018B1012069
:104A60000C49086002E000200A4908600120094959
:104A7000091D08600A200CF00DFC00200649C1F851
:104A8000A0010A200CF006FC601CC4B2082CE2DB7A
:104A900070BD00009C8121420080214270B5044617
:104AA00044F080052846FFF7D1FF70BD10B5002007
:104AB000094908600A200CF0EDFBEA20FFF7C6FF69
:104AC000DC20FFF7C3FF01200449C1F8A4010A203C
:104AD0000CF0E0FB10BD0000A481214200802142C7
:104AE00010B50020094908600A200CF0D3FBEA2029
:104AF000FFF7ACFFE520FFF7A9FF01200449C1F84B
:104B0000A4010A200CF0C6FB10BD0000A4812142C4
:104B10000080214270477047704770477047704768
:104B200070477047704770477047704770477047CD
:104B300070477047704770477047704770477047BD
:104B400070477047704770477047704770477047AD
:104B50007047704770477047704770477047000054
:104B60002DE9F041CCB005460E46144604F10F0085
:104B700087B24FF0000806B11CB900204CB0BDE868
:104B8000F0817D208DF80400D0208DF80500F8B26A
:104B90008DF80600380A8DF8070000208DF808000F
:104BA0008DF809008DF80A008DF80B001A4800787E
:104BB0008DF80C0018480088000A8DF80D00164882
:104BC0000068000C8DF80E0013480068000E8DF888
:104BD0000F00E8B28DF81100280A8DF81000224667
:104BE00031460DF11200FBF72CFB04F10E0081B2EF
:104BF00001A80DF07EF904F10E0101AA5054481CE1
:104C000082B201A9002002F0D7F903480068401CD5
:104C1000014908600120B1E77803002010B504467F
:104C2000207804281AD0052804D006281DD007288B
:104C30002BD122E0FCF7F6FC78B1012014498870F2
:104C400000211448FEF7C0FE134A0821322004F068
:104C50003BFF962164200EF061F817E001200C491B
:104C60008870002002F0BCFF10E001200849887025
:104C7000FCF7E2F9FCF7C6FA08E001200449887065
:104C800006490748FEF7A0FE00E000BF00BF10BDC8
:104C9000F403002020050020000000204404002030
:104CA0009C06002010B504462078022808D1002078
:104CB00005498870054908680021FEF785FE00E077
:104CC00000BF00BF10BD0000F4030020F804002066
:104CD00010B504462078022808D1002005498870C4
:104CE000054908680021FEF76FFE00E000BF00BF25
:104CF00010BD0000F40300200C05002001780129FC
:104D000005D0032902D0042909D104E000BF002105
:104D1000044A917004E00021024A917000E000BF53
:104D200000BF7047F403002010B504462078042823
:104D30001FD006DC01280BD002280DD0032846D155
:104D400012E00F2819D0102825D011283FD130E0CB
:104D50000020204988703BE01F48FEF721FE00211B
:104D60001D48FEF731FE33E000211C48FEF72CFE03
:104D70002EE0002002F034FF2AE0012018490876D6
:104D800002F046FE174A08214FF4FA6004F09CFE38
:104D900009F080FC1CE002201149087602F038FE80
:104DA000104A08214FF4FA6004F08EFE09F072FCFC
:104DB0000EE003200A49087602F02AFE094A08217B
:104DC0004FF4FA6004F080FE09F064FC00E000BFDC
:104DD00000BF10BDF403002048050020200500207E
:104DE000247400200000002010B504462078062816
:104DF0001CD006DC01280BD002280DD0032842D19C
:104E00000FE007281DD0082829D012283BD134E014
:104E100000201E49887037E000211D48FEF7D4FDB0
:104E200032E000211B48FEF7CFFD2DE0FEF72AF906
:104E3000194A08214FF4FA6004F046FE09F02AFCF2
:104E400022E001201549487602F0E2FD124A0821CD
:104E50004FF4FA6004F038FE09F01CFC14E0002066
:104E60000E49487602F0D4FD0B4A08214FF4FA604F
:104E700004F02AFE09F00EFC06E00F2141F2057055
:104E800007F02EFE00E000BF00BF10BDF4030020BD
:104E9000340500205C050020000000202474002060
:104EA00010B504462078012802D0022809D103E079
:104EB00000200549887005E000210448FEF784FDC4
:104EC00000E000BF00BF10BDF40300204805002033
:104ED00010B50446207806281FD006DC032809D028
:104EE00004280AD005283CD10FE007281DD00F2840
:104EF00037D122E0FDF7D4FF34E002201A49887050
:104F000000211A48FEF760FD2CE002201649887047
:104F100000211748FEF758FD24E00220124988704E
:104F200000211448FEF750FD1CE002200E49887055
:104F300000211148FEF748FD14E0FCF773FB78B13F
:104F400001200949887000210C48FEF73DFD0C4AFC
:104F50000821322004F0B8FD962164200DF0DEFE19
:104F600000E000BF00BF10BDF40300208405002056
:104F700098050020AC050020C00500202005002079
:104F80000000002010B5044620780A2820D006DC56
:104F9000022809D008280FD009282BD112E00B28AD
:104FA0001CD00E2826D11FE0002014498870002153
:104FB0001348FEF709FD1EE0032141F68D0006F0BF
:104FC000B5FD18E0062141F68D0006F0AFFD12E0B8
:104FD000092141F68D0006F0A9FD0CE00C2141F6F7
:104FE0008D0006F0A3FD06E0012141F68D0007F0DB
:104FF00077FD00E000BF00BF10BD0000F4030020FB
:105000007005002010B5044620780A2820D006DC60
:10501000022809D008280FD009282BD112E00B282C
:105020001CD00E2826D11FE00020144988700021D2
:105030001348FEF7C9FC1EE0052141F60D1006F0ED
:1050400075FD18E00A2141F60D1006F06FFD12E023
:105050000F2141F60D1006F069FD0CE0142141F618
:105060000D1006F063FD06E0012141F60D1007F07A
:1050700037FD00E000BF00BF10BD0000F4030020BA
:105080007005002010B5044620780A2820D006DCE0
:10509000022809D008280FD009282BD112E00B28AC
:1050A0001CD00E2826D11FE0002014498870002152
:1050B0001348FEF789FC1EE01E2141F68D1006F014
:1050C00035FD18E03C2141F68D1006F02FFD12E071
:1050D0005A2141F68D1006F029FD0CE0782141F6A9
:1050E0008D1006F023FD06E0012141F68D1007F03A
:1050F000F7FC00E000BF00BF10BD0000F40300207B
:105100007005002010B50446207805280AD1FCF768
:1051100089FA30B101200549887000210448FEF762
:1051200053FC00E000BF00BF10BD0000F4030020EE
:105130002005002010B5044620780A2820D006DC7F
:10514000022809D008280FD009282BD112E00B28FB
:105150001CD00E2826D11FE00020144988700021A1
:105160001348FEF731FC1EE0062141F60D2006F043
:10517000DDFC18E00C2141F60D2006F0D7FC12E012
:10518000122141F60D2006F0D1FC0CE0172141F66A
:105190000D2006F0CBFC06E0012141F60D2007F0C2
:1051A0009FFC00E000BF00BF10BD0000F403002022
:1051B0007005002010B504462078022805D1044966
:1051C00008680021FEF700FC00E000BF00BF10BD32
:1051D0004805002010B504462078012804D0022894
:1051E00006D012280ED107E00020084988700AE096
:1051F00000200649887006E00F2141F6053007F0CF
:105200006FFC00E000BF00BF10BD0000F4030020F1
:1052100010B504462078022805D104490868002109
:10522000FEF7D2FB00E000BF00BF10BD4805002024
:1052300010B504462078022805D1044908680021E9
:10524000FEF7C2FB00E000BF00BF10BD4805002014
:1052500010B504462078052813D1FCF7E3F978B19E
:1052600001200949887000210848FEF7ADFB084A73
:105270000821322004F028FC962164200DF04EFD18
:1052800000E000BF00BF10BDF40300202005002097
:10529000000000200178012903D10021024A917009
:1052A00000E000BF00BF7047F403002010B50446C3
:1052B0002078012804D0022806D004280CD107E069
:1052C00000200749887008E0012002F089FC04E012
:1052D000022002F085FC00E000BF00BF10BD00000E
:1052E000F403002010B504462078012802D00228DB
:1052F00008D103E000200549887004E0012002F095
:105300006FFC00E000BF00BF10BD0000F4030020F0
:1053100010B504462078042809D005280CD10120B6
:105320000749887007490848FEF74EFB05E0054924
:105330000648FEF749FB00E000BF00BF10BD0000BB
:10534000F40300206C0400202005002094040020B9
:1053500010B504462078062818D2DFE800F01703BD
:10536000070B0F1300200B49887010E00120FCF799
:1053700047F80CE00120FBF7C9FF08E00A20FCF722
:105380003FF804E00A20FBF7C1FF00E000BF00BFC8
:1053900010BD0000F403002010B504462078012859
:1053A00004D0022806D003280CD107E000200749CA
:1053B000887008E00120FCF723F804E00A20FCF7DD
:1053C0001FF800E000BF00BF10BD0000F403002084
:1053D0000178012902D0022908D103E00021054A01
:1053E000917004E00021034A917000E000BF00BF0B
:1053F00070470000F40300200178012902D002293F
:1054000008D103E00021054A917004E00021034A1D
:10541000917000E000BF00BF70470000F40300205F
:105420000178012902D0022908D103E00021054AB0
:10543000917004E00021034A917000E000BF00BFBA
:1054400070470000F40300200178012902D00229EE
:1054500008D103E00021054A917004E00021034ACD
:10546000917000E000BF00BF70470000F40300200F
:105470000178012902D0022908D103E00021054A60
:10548000917004E00021034A917000E000BF00BF6A
:1054900070470000F40300200178012902D002299E
:1054A00008D103E00021054A917004E00021034A7D
:1054B000917000E000BF00BF70470000F4030020BF
:1054C0000178012902D0022908D103E00021054A10
:1054D000917004E00021034A917000E000BF00BF1A
:1054E00070470000F40300207047000010B5044628
:1054F0002078022805D1044908680021FEF764FAE3
:1055000000E000BF00BF10BD9404002010B50446A9
:105510002078022805D1044908680021FEF754FAD2
:1055200000E000BF00BF10BDA804002010B5044675
:105530002078022808D100200549887005490868AC
:105540000021FEF741FA00E000BF00BF10BD0000DF
:10555000F4030020BC04002010B504462078022883
:1055600008D1002005498870054908680021FEF728
:105570002BFA00E000BF00BF10BD0000F4030020C4
:10558000D004002010B504462078022808D100205D
:1055900005498870054908680021FEF715FA00E002
:1055A00000BF00BF10BD0000F4030020E404002091
:1055B00010B560210348FAF75DFE60210248FAF752
:1055C00059FE10BDA65E00206A5B002070B504463F
:1055D0000D460CB9002070BD172D01D00020FAE750
:1055E000172221463046FAF72CFE307C08B1002005
:1055F000F1E7172221460648FAF723FE0448B0F8DF
:10560000110010B90120034908700120E3E70000F0
:10561000865D00204403002002460120704770B5DB
:1056200004460E460CB1022E01D0002070BD254666
:105630002878012801DB0020F8E76878012805D1E7
:1056400000231A46394606200CF0F8FF0120EDE74A
:1056500002460120704700002DE9F04780460E46C3
:105660000027B8F1000F01D00F2E02DA0020BDE8AC
:10567000F087454647E028787D2802D16878D02811
:1056800001D00020F3E7A878E97840EA0124B4F5D6
:10569000967F01DC0F2C01DA0020E8E7B44205DD3B
:1056A00021461BA00AF0B8FA0020E0E7687B297BBE
:1056B00040EA0129A4F10F0084B2224605F10E014F
:1056C0001648FAF7BEFD002713E0154830F83700FA
:1056D00048450CD1124800EBC700406830B1104873
:1056E00000EBC700214642680C48904703E0781C55
:1056F000C7B20E2FE9DB00BF301B0F3886B204F1B2
:105700000F0008EB00050F2EB5DC0120AFE700000D
:10571000323467636D643D25640D0A00165F002016
:10572000483B010870B505460C460DB1022C01D06E
:10573000002070BD1348007868B11348007818B194
:1057400011480078062806D10120FBF755FF0020FC
:105750000C4908700BE00B48007840B10B4800780A
:1057600028B1042000F028FF0020084908700848EC
:10577000007828B1002000F01FFF002004490870C5
:105780000120D6E7460300204C4500207E03002080
:105790007F03002070B505460E46112E01D0002073
:1057A00070BD2C7C012C01DB0020F9E700231A4698
:1057B000214607200CF042FF0120F1E770B50546B5
:1057C0000C46102C01D0002070BD00231A4619464B
:1057D00008200CF033FF0120F6E700002DE9F0412E
:1057E00098B00746884600240025002015901690A2
:1057F0001790002654216846FAF73CFD1FB9002097
:1058000018B0BDE8F08138785C4908700846007827
:105810000C2808DCA8F101000978C900884202D1EF
:105820005648007808B90020EAE74246791C5448F7
:10583000FAF707FD5248007850B10320514908702B
:1058400000231A46194605200CF0F8FE0020D7E781
:10585000002407E04A4800EBC40040782844C5B261
:10586000601CC4B2454800788442F3DB302D0AD076
:1058700003204449087000231A46194605200CF0FD
:10588000DDFE0020BCE700203E4908703B48007860
:105890008DF850000026002440E000251AE038482A
:1058A00000EBC4004088364901EBC50149888842B5
:1058B0000ED1334800EBC4008088314901EBC501AB
:1058C0008988884204D115A8405D15A9085503E0D0
:1058D000681CC5B2A542E2DB00BFA5421CD115A8D9
:1058E0000655701CC6B2264800EBC40080884FF4F1
:1058F0007A714843711E04AA42F82100204800EB47
:10590000C40040884FF47A714843711E4DF821005D
:10591000042E01DD002073E7601CC4B21748007834
:105920008442BADB0025002411E015AB1A5D144B4C
:1059300003EBC403597808AB5819FAF794FC1048E4
:1059400000EBC40040782844C5B2601CC4B20B48C8
:1059500000788442E9DB512269460B48FAF771FC72
:105960005123094A002108460CF01AF900231A466F
:10597000194605200CF062FE012041E74503002096
:10598000265D0020410300207575002070B5054696
:105990000E460DB1212E01D0002070BD21222946D6
:1059A0000A48FAF74EFC094804780020C4EBC40109
:1059B000074A02F82100C4EBC40102EB810108761A
:1059C0000021204609F040FD0120E6E7DB5C0020D5
:1059D0002C5100202DE9F04704460D4603270CB159
:1059E000092D02D00020BDE8F0872A4621461E4836
:1059F000FAF727FC1C48007808B90020F3E70121DA
:105A00000020FBF797FD19480078042801D007F023
:105A10007BF815490879FDF759FA80461249C8788C
:105A2000FDF754FA814610498878FDF74FFA00F5E2
:105A3000FA664246494630460DF014F90A49C879DB
:105A4000FDF744FA064608498879FDF73FFA804693
:105A500005494879FDF73AFA8146324641460DF04C
:105A600025F90120BFE70000935C00204C45002091
:105A700070B505460E460DB9002070BD122E01D03E
:105A80000020FAE7122229462046FAF7DAFB207CAA
:105A9000022804D0012000F027FD0020EDE7607C03
:105AA000012802D0607C022806D1002000F01CFDF5
:105AB00001200549087004E0012000F015FD0020D8
:105AC000DBE70120D9E700004003002070B5054660
:105AD0000E462C460DB13F2E01D0002070BD002097
